{
  "_format": "hh-sol-artifact-1",
  "contractName": "MyEpicGame",
  "sourceName": "contracts/MyEpicGame.sol",
  "abi": [
    {
      "inputs": [
        {
          "internalType": "string[]",
          "name": "characterNames",
          "type": "string[]"
        },
        {
          "internalType": "string[]",
          "name": "characterImageURIs",
          "type": "string[]"
        },
        {
          "internalType": "string[]",
          "name": "characterMainColor",
          "type": "string[]"
        },
        {
          "internalType": "uint256[]",
          "name": "characterHp",
          "type": "uint256[]"
        },
        {
          "internalType": "uint256[]",
          "name": "characterAttackDmg",
          "type": "uint256[]"
        },
        {
          "internalType": "string",
          "name": "bossName",
          "type": "string"
        },
        {
          "internalType": "string",
          "name": "bossImageURI",
          "type": "string"
        },
        {
          "internalType": "string",
          "name": "bossMainColor",
          "type": "string"
        },
        {
          "internalType": "uint256",
          "name": "bossHp",
          "type": "uint256"
        },
        {
          "internalType": "uint256",
          "name": "bossAttackDamage",
          "type": "uint256"
        }
      ],
      "stateMutability": "nonpayable",
      "type": "constructor"
    },
    {
      "anonymous": false,
      "inputs": [
        {
          "indexed": true,
          "internalType": "address",
          "name": "owner",
          "type": "address"
        },
        {
          "indexed": true,
          "internalType": "address",
          "name": "approved",
          "type": "address"
        },
        {
          "indexed": true,
          "internalType": "uint256",
          "name": "tokenId",
          "type": "uint256"
        }
      ],
      "name": "Approval",
      "type": "event"
    },
    {
      "anonymous": false,
      "inputs": [
        {
          "indexed": true,
          "internalType": "address",
          "name": "owner",
          "type": "address"
        },
        {
          "indexed": true,
          "internalType": "address",
          "name": "operator",
          "type": "address"
        },
        {
          "indexed": false,
          "internalType": "bool",
          "name": "approved",
          "type": "bool"
        }
      ],
      "name": "ApprovalForAll",
      "type": "event"
    },
    {
      "anonymous": false,
      "inputs": [
        {
          "indexed": false,
          "internalType": "uint256",
          "name": "newBossHp",
          "type": "uint256"
        },
        {
          "indexed": false,
          "internalType": "uint256",
          "name": "newPlayerHp",
          "type": "uint256"
        },
        {
          "indexed": false,
          "internalType": "uint256",
          "name": "damageDealt",
          "type": "uint256"
        }
      ],
      "name": "AttackComplete",
      "type": "event"
    },
    {
      "anonymous": false,
      "inputs": [
        {
          "indexed": false,
          "internalType": "address",
          "name": "sender",
          "type": "address"
        },
        {
          "indexed": false,
          "internalType": "uint256",
          "name": "tokenId",
          "type": "uint256"
        },
        {
          "indexed": false,
          "internalType": "uint256",
          "name": "characterIndex",
          "type": "uint256"
        }
      ],
      "name": "CharacterNFTMinted",
      "type": "event"
    },
    {
      "anonymous": false,
      "inputs": [
        {
          "indexed": false,
          "internalType": "uint256",
          "name": "newBossHp",
          "type": "uint256"
        },
        {
          "indexed": false,
          "internalType": "uint256",
          "name": "damageDealt",
          "type": "uint256"
        }
      ],
      "name": "SpecialAttackComplete",
      "type": "event"
    },
    {
      "anonymous": false,
      "inputs": [
        {
          "indexed": true,
          "internalType": "address",
          "name": "from",
          "type": "address"
        },
        {
          "indexed": true,
          "internalType": "address",
          "name": "to",
          "type": "address"
        },
        {
          "indexed": true,
          "internalType": "uint256",
          "name": "tokenId",
          "type": "uint256"
        }
      ],
      "name": "Transfer",
      "type": "event"
    },
    {
      "inputs": [
        {
          "internalType": "uint256",
          "name": "damage",
          "type": "uint256"
        }
      ],
      "name": "applyDamageConditions",
      "outputs": [
        {
          "internalType": "uint256",
          "name": "",
          "type": "uint256"
        }
      ],
      "stateMutability": "view",
      "type": "function"
    },
    {
      "inputs": [
        {
          "internalType": "address",
          "name": "to",
          "type": "address"
        },
        {
          "internalType": "uint256",
          "name": "tokenId",
          "type": "uint256"
        }
      ],
      "name": "approve",
      "outputs": [],
      "stateMutability": "nonpayable",
      "type": "function"
    },
    {
      "inputs": [],
      "name": "attackBoss",
      "outputs": [],
      "stateMutability": "nonpayable",
      "type": "function"
    },
    {
      "inputs": [
        {
          "internalType": "address",
          "name": "owner",
          "type": "address"
        }
      ],
      "name": "balanceOf",
      "outputs": [
        {
          "internalType": "uint256",
          "name": "",
          "type": "uint256"
        }
      ],
      "stateMutability": "view",
      "type": "function"
    },
    {
      "inputs": [],
      "name": "bigBoss",
      "outputs": [
        {
          "internalType": "string",
          "name": "name",
          "type": "string"
        },
        {
          "internalType": "string",
          "name": "imageURI",
          "type": "string"
        },
        {
          "internalType": "string",
          "name": "mainColor",
          "type": "string"
        },
        {
          "internalType": "uint256",
          "name": "hp",
          "type": "uint256"
        },
        {
          "internalType": "uint256",
          "name": "maxHp",
          "type": "uint256"
        },
        {
          "internalType": "uint256",
          "name": "attackDamage",
          "type": "uint256"
        },
        {
          "internalType": "bool",
          "name": "isBurnt",
          "type": "bool"
        },
        {
          "internalType": "uint256",
          "name": "lastBurntAt",
          "type": "uint256"
        },
        {
          "internalType": "bool",
          "name": "isFrozen",
          "type": "bool"
        },
        {
          "internalType": "uint256",
          "name": "lastFrozenAt",
          "type": "uint256"
        }
      ],
      "stateMutability": "view",
      "type": "function"
    },
    {
      "inputs": [],
      "name": "checkIfUserHasNFT",
      "outputs": [
        {
          "components": [
            {
              "internalType": "uint256",
              "name": "characterIndex",
              "type": "uint256"
            },
            {
              "internalType": "string",
              "name": "name",
              "type": "string"
            },
            {
              "internalType": "string",
              "name": "imageURI",
              "type": "string"
            },
            {
              "internalType": "string",
              "name": "mainColor",
              "type": "string"
            },
            {
              "internalType": "uint256",
              "name": "hp",
              "type": "uint256"
            },
            {
              "internalType": "uint256",
              "name": "maxHp",
              "type": "uint256"
            },
            {
              "internalType": "uint256",
              "name": "attackDamage",
              "type": "uint256"
            },
            {
              "internalType": "uint256",
              "name": "lastDefeatedAt",
              "type": "uint256"
            },
            {
              "internalType": "uint256",
              "name": "lastSpecialAbilityUse",
              "type": "uint256"
            }
          ],
          "internalType": "struct MyEpicGame.CharacterAttributes",
          "name": "",
          "type": "tuple"
        }
      ],
      "stateMutability": "view",
      "type": "function"
    },
    {
      "inputs": [
        {
          "internalType": "address",
          "name": "",
          "type": "address"
        }
      ],
      "name": "damageDealt",
      "outputs": [
        {
          "internalType": "uint256",
          "name": "",
          "type": "uint256"
        }
      ],
      "stateMutability": "view",
      "type": "function"
    },
    {
      "inputs": [],
      "name": "getAllDefaultCharacters",
      "outputs": [
        {
          "components": [
            {
              "internalType": "uint256",
              "name": "characterIndex",
              "type": "uint256"
            },
            {
              "internalType": "string",
              "name": "name",
              "type": "string"
            },
            {
              "internalType": "string",
              "name": "imageURI",
              "type": "string"
            },
            {
              "internalType": "string",
              "name": "mainColor",
              "type": "string"
            },
            {
              "internalType": "uint256",
              "name": "hp",
              "type": "uint256"
            },
            {
              "internalType": "uint256",
              "name": "maxHp",
              "type": "uint256"
            },
            {
              "internalType": "uint256",
              "name": "attackDamage",
              "type": "uint256"
            },
            {
              "internalType": "uint256",
              "name": "lastDefeatedAt",
              "type": "uint256"
            },
            {
              "internalType": "uint256",
              "name": "lastSpecialAbilityUse",
              "type": "uint256"
            }
          ],
          "internalType": "struct MyEpicGame.CharacterAttributes[]",
          "name": "",
          "type": "tuple[]"
        }
      ],
      "stateMutability": "view",
      "type": "function"
    },
    {
      "inputs": [],
      "name": "getAllPlayers",
      "outputs": [
        {
          "components": [
            {
              "internalType": "address",
              "name": "holderAddress",
              "type": "address"
            },
            {
              "internalType": "uint256",
              "name": "tokenId",
              "type": "uint256"
            },
            {
              "internalType": "string",
              "name": "imageURI",
              "type": "string"
            },
            {
              "internalType": "uint256",
              "name": "damageDealt",
              "type": "uint256"
            }
          ],
          "internalType": "struct MyEpicGame.PlayerCharacters[]",
          "name": "",
          "type": "tuple[]"
        }
      ],
      "stateMutability": "view",
      "type": "function"
    },
    {
      "inputs": [
        {
          "internalType": "uint256",
          "name": "tokenId",
          "type": "uint256"
        }
      ],
      "name": "getApproved",
      "outputs": [
        {
          "internalType": "address",
          "name": "",
          "type": "address"
        }
      ],
      "stateMutability": "view",
      "type": "function"
    },
    {
      "inputs": [],
      "name": "getBigBoss",
      "outputs": [
        {
          "components": [
            {
              "internalType": "string",
              "name": "name",
              "type": "string"
            },
            {
              "internalType": "string",
              "name": "imageURI",
              "type": "string"
            },
            {
              "internalType": "string",
              "name": "mainColor",
              "type": "string"
            },
            {
              "internalType": "uint256",
              "name": "hp",
              "type": "uint256"
            },
            {
              "internalType": "uint256",
              "name": "maxHp",
              "type": "uint256"
            },
            {
              "internalType": "uint256",
              "name": "attackDamage",
              "type": "uint256"
            },
            {
              "internalType": "bool",
              "name": "isBurnt",
              "type": "bool"
            },
            {
              "internalType": "uint256",
              "name": "lastBurntAt",
              "type": "uint256"
            },
            {
              "internalType": "bool",
              "name": "isFrozen",
              "type": "bool"
            },
            {
              "internalType": "uint256",
              "name": "lastFrozenAt",
              "type": "uint256"
            }
          ],
          "internalType": "struct MyEpicGame.BigBoss",
          "name": "",
          "type": "tuple"
        }
      ],
      "stateMutability": "view",
      "type": "function"
    },
    {
      "inputs": [],
      "name": "getTimeSinceDefeat",
      "outputs": [
        {
          "internalType": "uint256",
          "name": "",
          "type": "uint256"
        }
      ],
      "stateMutability": "view",
      "type": "function"
    },
    {
      "inputs": [],
      "name": "getTimeSinceSpecialAbilityUse",
      "outputs": [
        {
          "internalType": "uint256",
          "name": "",
          "type": "uint256"
        }
      ],
      "stateMutability": "view",
      "type": "function"
    },
    {
      "inputs": [],
      "name": "healCharacter",
      "outputs": [],
      "stateMutability": "nonpayable",
      "type": "function"
    },
    {
      "inputs": [
        {
          "internalType": "address",
          "name": "owner",
          "type": "address"
        },
        {
          "internalType": "address",
          "name": "operator",
          "type": "address"
        }
      ],
      "name": "isApprovedForAll",
      "outputs": [
        {
          "internalType": "bool",
          "name": "",
          "type": "bool"
        }
      ],
      "stateMutability": "view",
      "type": "function"
    },
    {
      "inputs": [
        {
          "internalType": "uint256",
          "name": "_characterIndex",
          "type": "uint256"
        }
      ],
      "name": "mintCharacterNFT",
      "outputs": [],
      "stateMutability": "nonpayable",
      "type": "function"
    },
    {
      "inputs": [],
      "name": "name",
      "outputs": [
        {
          "internalType": "string",
          "name": "",
          "type": "string"
        }
      ],
      "stateMutability": "view",
      "type": "function"
    },
    {
      "inputs": [
        {
          "internalType": "uint256",
          "name": "",
          "type": "uint256"
        }
      ],
      "name": "nftHolderAttributes",
      "outputs": [
        {
          "internalType": "uint256",
          "name": "characterIndex",
          "type": "uint256"
        },
        {
          "internalType": "string",
          "name": "name",
          "type": "string"
        },
        {
          "internalType": "string",
          "name": "imageURI",
          "type": "string"
        },
        {
          "internalType": "string",
          "name": "mainColor",
          "type": "string"
        },
        {
          "internalType": "uint256",
          "name": "hp",
          "type": "uint256"
        },
        {
          "internalType": "uint256",
          "name": "maxHp",
          "type": "uint256"
        },
        {
          "internalType": "uint256",
          "name": "attackDamage",
          "type": "uint256"
        },
        {
          "internalType": "uint256",
          "name": "lastDefeatedAt",
          "type": "uint256"
        },
        {
          "internalType": "uint256",
          "name": "lastSpecialAbilityUse",
          "type": "uint256"
        }
      ],
      "stateMutability": "view",
      "type": "function"
    },
    {
      "inputs": [
        {
          "internalType": "address",
          "name": "",
          "type": "address"
        }
      ],
      "name": "nftHolders",
      "outputs": [
        {
          "internalType": "uint256",
          "name": "",
          "type": "uint256"
        }
      ],
      "stateMutability": "view",
      "type": "function"
    },
    {
      "inputs": [
        {
          "internalType": "uint256",
          "name": "tokenId",
          "type": "uint256"
        }
      ],
      "name": "ownerOf",
      "outputs": [
        {
          "internalType": "address",
          "name": "",
          "type": "address"
        }
      ],
      "stateMutability": "view",
      "type": "function"
    },
    {
      "inputs": [
        {
          "internalType": "address",
          "name": "from",
          "type": "address"
        },
        {
          "internalType": "address",
          "name": "to",
          "type": "address"
        },
        {
          "internalType": "uint256",
          "name": "tokenId",
          "type": "uint256"
        }
      ],
      "name": "safeTransferFrom",
      "outputs": [],
      "stateMutability": "nonpayable",
      "type": "function"
    },
    {
      "inputs": [
        {
          "internalType": "address",
          "name": "from",
          "type": "address"
        },
        {
          "internalType": "address",
          "name": "to",
          "type": "address"
        },
        {
          "internalType": "uint256",
          "name": "tokenId",
          "type": "uint256"
        },
        {
          "internalType": "bytes",
          "name": "data",
          "type": "bytes"
        }
      ],
      "name": "safeTransferFrom",
      "outputs": [],
      "stateMutability": "nonpayable",
      "type": "function"
    },
    {
      "inputs": [
        {
          "internalType": "address",
          "name": "operator",
          "type": "address"
        },
        {
          "internalType": "bool",
          "name": "approved",
          "type": "bool"
        }
      ],
      "name": "setApprovalForAll",
      "outputs": [],
      "stateMutability": "nonpayable",
      "type": "function"
    },
    {
      "inputs": [
        {
          "internalType": "bytes4",
          "name": "interfaceId",
          "type": "bytes4"
        }
      ],
      "name": "supportsInterface",
      "outputs": [
        {
          "internalType": "bool",
          "name": "",
          "type": "bool"
        }
      ],
      "stateMutability": "view",
      "type": "function"
    },
    {
      "inputs": [],
      "name": "symbol",
      "outputs": [
        {
          "internalType": "string",
          "name": "",
          "type": "string"
        }
      ],
      "stateMutability": "view",
      "type": "function"
    },
    {
      "inputs": [
        {
          "internalType": "uint256",
          "name": "_tokenId",
          "type": "uint256"
        }
      ],
      "name": "tokenURI",
      "outputs": [
        {
          "internalType": "string",
          "name": "",
          "type": "string"
        }
      ],
      "stateMutability": "view",
      "type": "function"
    },
    {
      "inputs": [
        {
          "internalType": "address",
          "name": "from",
          "type": "address"
        },
        {
          "internalType": "address",
          "name": "to",
          "type": "address"
        },
        {
          "internalType": "uint256",
          "name": "tokenId",
          "type": "uint256"
        }
      ],
      "name": "transferFrom",
      "outputs": [],
      "stateMutability": "nonpayable",
      "type": "function"
    },
    {
      "inputs": [],
      "name": "useSpecialAbility",
      "outputs": [],
      "stateMutability": "nonpayable",
      "type": "function"
    }
  ],
  "bytecode": "0x60806040523480156200001157600080fd5b5060405162006b7538038062006b7583398181016040528101906200003791906200079a565b6040518060400160405280600681526020017f4865726f657300000000000000000000000000000000000000000000000000008152506040518060400160405280600481526020017f4845524f000000000000000000000000000000000000000000000000000000008152508160009081620000b4919062000bc9565b508060019081620000c6919062000bc9565b505050604051806101400160405280868152602001858152602001848152602001838152602001838152602001828152602001600015158152602001600081526020016000151581526020016000815250600c600082015181600001908162000130919062000bc9565b50602082015181600101908162000148919062000bc9565b50604082015181600201908162000160919062000bc9565b50606082015181600301556080820151816004015560a0820151816005015560c08201518160060160006101000a81548160ff02191690831515021790555060e082015181600701556101008201518160080160006101000a81548160ff02191690831515021790555061012082015181600901559050506000601660006101000a81548160ff021916908315150217905550600060178190555060005b8a51811015620003c15760076040518061012001604052808381526020018d848151811062000232576200023162000cb0565b5b602002602001015181526020018c848151811062000255576200025462000cb0565b5b602002602001015181526020018b848151811062000278576200027762000cb0565b5b602002602001015181526020018a84815181106200029b576200029a62000cb0565b5b602002602001015181526020018a8481518110620002be57620002bd62000cb0565b5b60200260200101518152602001898481518110620002e157620002e062000cb0565b5b60200260200101518152602001600081526020016000815250908060018154018082558091505060019003906000526020600020906009020160009091909190915060008201518160000155602082015181600101908162000344919062000bc9565b5060408201518160020190816200035c919062000bc9565b50606082015181600301908162000374919062000bc9565b506080820151816004015560a0820151816005015560c0820151816006015560e0820151816007015561010082015181600801555050600181620003b9919062000d0e565b9050620001fe565b50620003d46006620003e460201b60201c565b5050505050505050505062000d49565b6001816000016000828254019250508190555050565b6000604051905090565b600080fd5b600080fd5b600080fd5b6000601f19601f8301169050919050565b7f4e487b7100000000000000000000000000000000000000000000000000000000600052604160045260246000fd5b6200045e8262000413565b810181811067ffffffffffffffff8211171562000480576200047f62000424565b5b80604052505050565b600062000495620003fa565b9050620004a3828262000453565b919050565b600067ffffffffffffffff821115620004c657620004c562000424565b5b602082029050602081019050919050565b600080fd5b600080fd5b600067ffffffffffffffff821115620004ff57620004fe62000424565b5b6200050a8262000413565b9050602081019050919050565b60005b83811015620005375780820151818401526020810190506200051a565b60008484015250505050565b60006200055a6200055484620004e1565b62000489565b905082815260208101848484011115620005795762000578620004dc565b5b6200058684828562000517565b509392505050565b600082601f830112620005a657620005a56200040e565b5b8151620005b884826020860162000543565b91505092915050565b6000620005d8620005d284620004a8565b62000489565b90508083825260208201905060208402830185811115620005fe57620005fd620004d7565b5b835b818110156200064c57805167ffffffffffffffff8111156200062757620006266200040e565b5b8086016200063689826200058e565b8552602085019450505060208101905062000600565b5050509392505050565b600082601f8301126200066e576200066d6200040e565b5b815162000680848260208601620005c1565b91505092915050565b600067ffffffffffffffff821115620006a757620006a662000424565b5b602082029050602081019050919050565b6000819050919050565b620006cd81620006b8565b8114620006d957600080fd5b50565b600081519050620006ed81620006c2565b92915050565b60006200070a620007048462000689565b62000489565b9050808382526020820190506020840283018581111562000730576200072f620004d7565b5b835b818110156200075d5780620007488882620006dc565b84526020840193505060208101905062000732565b5050509392505050565b600082601f8301126200077f576200077e6200040e565b5b815162000791848260208601620006f3565b91505092915050565b6000806000806000806000806000806101408b8d031215620007c157620007c062000404565b5b60008b015167ffffffffffffffff811115620007e257620007e162000409565b5b620007f08d828e0162000656565b9a505060208b015167ffffffffffffffff81111562000814576200081362000409565b5b620008228d828e0162000656565b99505060408b015167ffffffffffffffff81111562000846576200084562000409565b5b620008548d828e0162000656565b98505060608b015167ffffffffffffffff81111562000878576200087762000409565b5b620008868d828e0162000767565b97505060808b015167ffffffffffffffff811115620008aa57620008a962000409565b5b620008b88d828e0162000767565b96505060a08b015167ffffffffffffffff811115620008dc57620008db62000409565b5b620008ea8d828e016200058e565b95505060c08b015167ffffffffffffffff8111156200090e576200090d62000409565b5b6200091c8d828e016200058e565b94505060e08b015167ffffffffffffffff81111562000940576200093f62000409565b5b6200094e8d828e016200058e565b935050610100620009628d828e01620006dc565b925050610120620009768d828e01620006dc565b9150509295989b9194979a5092959850565b600081519050919050565b7f4e487b7100000000000000000000000000000000000000000000000000000000600052602260045260246000fd5b60006002820490506001821680620009db57607f821691505b602082108103620009f157620009f062000993565b5b50919050565b60008190508160005260206000209050919050565b60006020601f8301049050919050565b600082821b905092915050565b60006008830262000a5b7fffffffffffffffffffffffffffffffffffffffffffffffffffffffffffffffff8262000a1c565b62000a67868362000a1c565b95508019841693508086168417925050509392505050565b6000819050919050565b600062000aaa62000aa462000a9e84620006b8565b62000a7f565b620006b8565b9050919050565b6000819050919050565b62000ac68362000a89565b62000ade62000ad58262000ab1565b84845462000a29565b825550505050565b600090565b62000af562000ae6565b62000b0281848462000abb565b505050565b5b8181101562000b2a5762000b1e60008262000aeb565b60018101905062000b08565b5050565b601f82111562000b795762000b4381620009f7565b62000b4e8462000a0c565b8101602085101562000b5e578190505b62000b7662000b6d8562000a0c565b83018262000b07565b50505b505050565b600082821c905092915050565b600062000b9e6000198460080262000b7e565b1980831691505092915050565b600062000bb9838362000b8b565b9150826002028217905092915050565b62000bd48262000988565b67ffffffffffffffff81111562000bf05762000bef62000424565b5b62000bfc8254620009c2565b62000c0982828562000b2e565b600060209050601f83116001811462000c41576000841562000c2c578287015190505b62000c38858262000bab565b86555062000ca8565b601f19841662000c5186620009f7565b60005b8281101562000c7b5784890151825560018201915060208501945060208101905062000c54565b8683101562000c9b578489015162000c97601f89168262000b8b565b8355505b6001600288020188555050505b505050505050565b7f4e487b7100000000000000000000000000000000000000000000000000000000600052603260045260246000fd5b7f4e487b7100000000000000000000000000000000000000000000000000000000600052601160045260246000fd5b600062000d1b82620006b8565b915062000d2883620006b8565b925082820190508082111562000d435762000d4262000cdf565b5b92915050565b615e1c8062000d596000396000f3fe608060405234801561001057600080fd5b50600436106101c45760003560e01c806395d89b41116100f9578063c87b56dd11610097578063d4f24c5b11610071578063d4f24c5b1461051a578063e985e9c514610524578063efa1c48214610554578063f8b81ef714610572576101c4565b8063c87b56dd146104c2578063c8cf27f4146104f2578063d355ae9914610510576101c4565b8063a9c32679116100d3578063a9c3267914610443578063b88d4fde1461046a578063b953084e14610486578063c5fb7aa2146104a4576101c4565b806395d89b41146103d157806398da4c95146103ef578063a22cb46514610427576101c4565b8063519ad50f11610166578063706733af11610140578063706733af1461033757806370a08231146103415780637df124a1146103715780637ea84ce9146103a1576101c4565b8063519ad50f146102b95780636352211e146102e9578063698c69bf14610319576101c4565b8063081812fc116101a2578063081812fc14610235578063095ea7b31461026557806323b872dd1461028157806342842e0e1461029d576101c4565b806301ffc9a7146101c95780630665f961146101f957806306fdde0314610217575b600080fd5b6101e360048036038101906101de9190613bb8565b61058e565b6040516101f09190613c00565b60405180910390f35b610201610670565b60405161020e9190613dbb565b60405180910390f35b61021f6108a9565b60405161022c9190613e27565b60405180910390f35b61024f600480360381019061024a9190613e75565b61093b565b60405161025c9190613ee3565b60405180910390f35b61027f600480360381019061027a9190613f2a565b610981565b005b61029b60048036038101906102969190613f6a565b610a98565b005b6102b760048036038101906102b29190613f6a565b610af8565b005b6102d360048036038101906102ce9190613e75565b610b18565b6040516102e09190613fcc565b60405180910390f35b61030360048036038101906102fe9190613e75565b610b72565b6040516103109190613ee3565b60405180910390f35b610321610bf8565b60405161032e9190613fcc565b60405180910390f35b61033f610c60565b005b61035b60048036038101906103569190613fe7565b611017565b6040516103689190613fcc565b60405180910390f35b61038b60048036038101906103869190613fe7565b6110ce565b6040516103989190613fcc565b60405180910390f35b6103bb60048036038101906103b69190613fe7565b6110e6565b6040516103c89190613fcc565b60405180910390f35b6103d96110fe565b6040516103e69190613e27565b60405180910390f35b61040960048036038101906104049190613e75565b611190565b60405161041e99989796959493929190614014565b60405180910390f35b610441600480360381019061043c91906140e2565b611376565b005b61044b61138c565b6040516104619a99989796959493929190614122565b60405180910390f35b610484600480360381019061047f9190614308565b611580565b005b61048e6115e2565b60405161049b9190614520565b60405180910390f35b6104ac611834565b6040516104b99190613fcc565b60405180910390f35b6104dc60048036038101906104d79190613e75565b61189c565b6040516104e99190613e27565b60405180910390f35b6104fa611b4c565b6040516105079190614615565b60405180910390f35b610518611dcb565b005b610522611ed0565b005b61053e60048036038101906105399190614637565b61212e565b60405161054b9190613c00565b60405180910390f35b61055c6121c2565b60405161056991906147ab565b60405180910390f35b61058c60048036038101906105879190613e75565b612407565b005b60007f80ac58cd000000000000000000000000000000000000000000000000000000007bffffffffffffffffffffffffffffffffffffffffffffffffffffffff1916827bffffffffffffffffffffffffffffffffffffffffffffffffffffffff1916148061065957507f5b5e139f000000000000000000000000000000000000000000000000000000007bffffffffffffffffffffffffffffffffffffffffffffffffffffffff1916827bffffffffffffffffffffffffffffffffffffffffffffffffffffffff1916145b806106695750610668826128a4565b5b9050919050565b610678613a6b565b600c60405180610140016040529081600082018054610696906147fc565b80601f01602080910402602001604051908101604052809291908181526020018280546106c2906147fc565b801561070f5780601f106106e45761010080835404028352916020019161070f565b820191906000526020600020905b8154815290600101906020018083116106f257829003601f168201915b50505050508152602001600182018054610728906147fc565b80601f0160208091040260200160405190810160405280929190818152602001828054610754906147fc565b80156107a15780601f10610776576101008083540402835291602001916107a1565b820191906000526020600020905b81548152906001019060200180831161078457829003601f168201915b505050505081526020016002820180546107ba906147fc565b80601f01602080910402602001604051908101604052809291908181526020018280546107e6906147fc565b80156108335780601f1061080857610100808354040283529160200191610833565b820191906000526020600020905b81548152906001019060200180831161081657829003601f168201915b505050505081526020016003820154815260200160048201548152602001600582015481526020016006820160009054906101000a900460ff16151515158152602001600782015481526020016008820160009054906101000a900460ff16151515158152602001600982015481525050905090565b6060600080546108b8906147fc565b80601f01602080910402602001604051908101604052809291908181526020018280546108e4906147fc565b80156109315780601f1061090657610100808354040283529160200191610931565b820191906000526020600020905b81548152906001019060200180831161091457829003601f168201915b5050505050905090565b60006109468261290e565b6004600083815260200190815260200160002060009054906101000a900473ffffffffffffffffffffffffffffffffffffffff169050919050565b600061098c82610b72565b90508073ffffffffffffffffffffffffffffffffffffffff168373ffffffffffffffffffffffffffffffffffffffff16036109fc576040517f08c379a00000000000000000000000000000000000000000000000000000000081526004016109f39061489f565b60405180910390fd5b8073ffffffffffffffffffffffffffffffffffffffff16610a1b612959565b73ffffffffffffffffffffffffffffffffffffffff161480610a4a5750610a4981610a44612959565b61212e565b5b610a89576040517f08c379a0000000000000000000000000000000000000000000000000000000008152600401610a8090614931565b60405180910390fd5b610a938383612961565b505050565b610aa9610aa3612959565b82612a1a565b610ae8576040517f08c379a0000000000000000000000000000000000000000000000000000000008152600401610adf906149c3565b60405180910390fd5b610af3838383612aaf565b505050565b610b1383838360405180602001604052806000815250611580565b505050565b6000600c60060160009054906101000a900460ff1615610b4257600282610b3f9190614a12565b91505b600c60080160009054906101000a900460ff1615610b6a57600282610b679190614a83565b91505b819050919050565b600080610b7e83612da8565b9050600073ffffffffffffffffffffffffffffffffffffffff168173ffffffffffffffffffffffffffffffffffffffff1603610bef576040517f08c379a0000000000000000000000000000000000000000000000000000000008152600401610be690614b00565b60405180910390fd5b80915050919050565b600060086000600960003373ffffffffffffffffffffffffffffffffffffffff1673ffffffffffffffffffffffffffffffffffffffff1681526020019081526020016000205481526020019081526020016000206008015442610c5b9190614b20565b905090565b6000600960003373ffffffffffffffffffffffffffffffffffffffff1673ffffffffffffffffffffffffffffffffffffffff16815260200190815260200160002054905060006008600083815260200190815260200160002090506000816004015411610d02576040517f08c379a0000000000000000000000000000000000000000000000000000000008152600401610cf990614bc6565b60405180910390fd5b6000600c6003015411610d4a576040517f08c379a0000000000000000000000000000000000000000000000000000000008152600401610d4190614c58565b60405180910390fd5b610e10610d55610bf8565b1015610d96576040517f08c379a0000000000000000000000000000000000000000000000000000000008152600401610d8d90614cea565b60405180910390fd5b610d9e612de5565b6000604051602001610daf90614d61565b6040516020818303038152906040528051906020012082600101604051602001610dd99190614e0e565b6040516020818303038152906040528051906020012003610e99576007600081548110610e0957610e08614e25565b5b9060005260206000209060090201600601549050610e2681610b18565b9050610e328133612edd565b6001600c60060160006101000a81548160ff02191690831515021790555042600c600701819055507f7c8ab04c418e7a957605993b2bde7638cb1d7613cab4b5a825ad1f22637cbf2d600c6003015482604051610e90929190614e54565b60405180910390a15b604051602001610ea890614ec9565b6040516020818303038152906040528051906020012082600101604051602001610ed29190614e0e565b6040516020818303038152906040528051906020012003610f92576007600181548110610f0257610f01614e25565b5b9060005260206000209060090201600601549050610f1f81610b18565b9050610f2b8133612edd565b6001600c60080160006101000a81548160ff02191690831515021790555042600c600901819055507f7c8ab04c418e7a957605993b2bde7638cb1d7613cab4b5a825ad1f22637cbf2d600c6003015482604051610f89929190614e54565b60405180910390a15b604051602001610fa190614f2a565b6040516020818303038152906040528051906020012082600101604051602001610fcb9190614e0e565b6040516020818303038152906040528051906020012003611009576001601660006101000a81548160ff021916908315150217905550426017819055505b428260080181905550505050565b60008073ffffffffffffffffffffffffffffffffffffffff168273ffffffffffffffffffffffffffffffffffffffff1603611087576040517f08c379a000000000000000000000000000000000000000000000000000000000815260040161107e90614fb1565b60405180910390fd5b600360008373ffffffffffffffffffffffffffffffffffffffff1673ffffffffffffffffffffffffffffffffffffffff168152602001908152602001600020549050919050565b60096020528060005260406000206000915090505481565b600a6020528060005260406000206000915090505481565b60606001805461110d906147fc565b80601f0160208091040260200160405190810160405280929190818152602001828054611139906147fc565b80156111865780601f1061115b57610100808354040283529160200191611186565b820191906000526020600020905b81548152906001019060200180831161116957829003601f168201915b5050505050905090565b60086020528060005260406000206000915090508060000154908060010180546111b9906147fc565b80601f01602080910402602001604051908101604052809291908181526020018280546111e5906147fc565b80156112325780601f1061120757610100808354040283529160200191611232565b820191906000526020600020905b81548152906001019060200180831161121557829003601f168201915b505050505090806002018054611247906147fc565b80601f0160208091040260200160405190810160405280929190818152602001828054611273906147fc565b80156112c05780601f10611295576101008083540402835291602001916112c0565b820191906000526020600020905b8154815290600101906020018083116112a357829003601f168201915b5050505050908060030180546112d5906147fc565b80601f0160208091040260200160405190810160405280929190818152602001828054611301906147fc565b801561134e5780601f106113235761010080835404028352916020019161134e565b820191906000526020600020905b81548152906001019060200180831161133157829003601f168201915b5050505050908060040154908060050154908060060154908060070154908060080154905089565b611388611381612959565b838361303a565b5050565b600c80600001805461139d906147fc565b80601f01602080910402602001604051908101604052809291908181526020018280546113c9906147fc565b80156114165780601f106113eb57610100808354040283529160200191611416565b820191906000526020600020905b8154815290600101906020018083116113f957829003601f168201915b50505050509080600101805461142b906147fc565b80601f0160208091040260200160405190810160405280929190818152602001828054611457906147fc565b80156114a45780601f10611479576101008083540402835291602001916114a4565b820191906000526020600020905b81548152906001019060200180831161148757829003601f168201915b5050505050908060020180546114b9906147fc565b80601f01602080910402602001604051908101604052809291908181526020018280546114e5906147fc565b80156115325780601f1061150757610100808354040283529160200191611532565b820191906000526020600020905b81548152906001019060200180831161151557829003601f168201915b5050505050908060030154908060040154908060050154908060060160009054906101000a900460ff16908060070154908060080160009054906101000a900460ff1690806009015490508a565b61159161158b612959565b83612a1a565b6115d0576040517f08c379a00000000000000000000000000000000000000000000000000000000081526004016115c7906149c3565b60405180910390fd5b6115dc848484846131a6565b50505050565b60606007805480602002602001604051908101604052809291908181526020016000905b8282101561182b57838290600052602060002090600902016040518061012001604052908160008201548152602001600182018054611644906147fc565b80601f0160208091040260200160405190810160405280929190818152602001828054611670906147fc565b80156116bd5780601f10611692576101008083540402835291602001916116bd565b820191906000526020600020905b8154815290600101906020018083116116a057829003601f168201915b505050505081526020016002820180546116d6906147fc565b80601f0160208091040260200160405190810160405280929190818152602001828054611702906147fc565b801561174f5780601f106117245761010080835404028352916020019161174f565b820191906000526020600020905b81548152906001019060200180831161173257829003601f168201915b50505050508152602001600382018054611768906147fc565b80601f0160208091040260200160405190810160405280929190818152602001828054611794906147fc565b80156117e15780601f106117b6576101008083540402835291602001916117e1565b820191906000526020600020905b8154815290600101906020018083116117c457829003601f168201915b505050505081526020016004820154815260200160058201548152602001600682015481526020016007820154815260200160088201548152505081526020019060010190611606565b50505050905090565b600060086000600960003373ffffffffffffffffffffffffffffffffffffffff1673ffffffffffffffffffffffffffffffffffffffff16815260200190815260200160002054815260200190815260200160002060070154426118979190614b20565b905090565b606060006008600084815260200190815260200160002060405180610120016040529081600082015481526020016001820180546118d9906147fc565b80601f0160208091040260200160405190810160405280929190818152602001828054611905906147fc565b80156119525780601f1061192757610100808354040283529160200191611952565b820191906000526020600020905b81548152906001019060200180831161193557829003601f168201915b5050505050815260200160028201805461196b906147fc565b80601f0160208091040260200160405190810160405280929190818152602001828054611997906147fc565b80156119e45780601f106119b9576101008083540402835291602001916119e4565b820191906000526020600020905b8154815290600101906020018083116119c757829003601f168201915b505050505081526020016003820180546119fd906147fc565b80601f0160208091040260200160405190810160405280929190818152602001828054611a29906147fc565b8015611a765780601f10611a4b57610100808354040283529160200191611a76565b820191906000526020600020905b815481529060010190602001808311611a5957829003601f168201915b505050505081526020016004820154815260200160058201548152602001600682015481526020016007820154815260200160088201548152505090506000611b1b8260200151611ac686613202565b8460400151611ad88660800151613202565b611ae58760a00151613202565b611af28860c00151613202565b604051602001611b0796959493929190615288565b6040516020818303038152906040526132d0565b9050600081604051602001611b309190615379565b6040516020818303038152906040529050809350505050919050565b611b54613ac2565b6000600960003373ffffffffffffffffffffffffffffffffffffffff1673ffffffffffffffffffffffffffffffffffffffff1681526020019081526020016000205490506000811115611dba57600860008281526020019081526020016000206040518061012001604052908160008201548152602001600182018054611bda906147fc565b80601f0160208091040260200160405190810160405280929190818152602001828054611c06906147fc565b8015611c535780601f10611c2857610100808354040283529160200191611c53565b820191906000526020600020905b815481529060010190602001808311611c3657829003601f168201915b50505050508152602001600282018054611c6c906147fc565b80601f0160208091040260200160405190810160405280929190818152602001828054611c98906147fc565b8015611ce55780601f10611cba57610100808354040283529160200191611ce5565b820191906000526020600020905b815481529060010190602001808311611cc857829003601f168201915b50505050508152602001600382018054611cfe906147fc565b80601f0160208091040260200160405190810160405280929190818152602001828054611d2a906147fc565b8015611d775780601f10611d4c57610100808354040283529160200191611d77565b820191906000526020600020905b815481529060010190602001808311611d5a57829003601f168201915b5050505050815260200160048201548152602001600582015481526020016006820154815260200160078201548152602001600882015481525050915050611dc8565b611dc2613ac2565b80925050505b90565b6000600960003373ffffffffffffffffffffffffffffffffffffffff1673ffffffffffffffffffffffffffffffffffffffff16815260200190815260200160002054905060006008600083815260200190815260200160002090506000816004015414611e6d576040517f08c379a0000000000000000000000000000000000000000000000000000000008152600401611e649061540d565b60405180910390fd5b6000611e77611834565b9050617080811015611ebe576040517f08c379a0000000000000000000000000000000000000000000000000000000008152600401611eb59061549f565b60405180910390fd5b81600501548260040181905550505050565b6000600960003373ffffffffffffffffffffffffffffffffffffffff1673ffffffffffffffffffffffffffffffffffffffff168152602001908152602001600020549050600060086000838152602001908152602001600020905060008160040154118015611f4457506000600c60030154115b611f83576040517f08c379a0000000000000000000000000000000000000000000000000000000008152600401611f7a90615531565b60405180910390fd5b611f8b612de5565b60006064826004015433600c6003015442604051602001611faf94939291906155ba565b6040516020818303038152906040528051906020012060001c611fd29190615608565b9050600082600601549050600a821015611ff657600281611ff39190614a12565b90505b611fff81610b18565b905061200b8133612edd565b6000600c600501549050601660009054906101000a900460ff161561203a576002816120379190614a83565b90505b600060643386600401544260405160200161205793929190615639565b6040516020818303038152906040528051906020012060001c61207a9190615608565b9050600c60080160009054906101000a900460ff16801561209c5750600a8110155b156120a657600091505b818560040154116120c957600085600401819055504285600701819055506120e2565b8185600401546120d99190614b20565b85600401819055505b7fa8f68fa0afad68f1577a1c5c66c297b751442bbab5e98c25f07ee510a921558c600c6003015486600401548560405161211e93929190615676565b60405180910390a1505050505050565b6000600560008473ffffffffffffffffffffffffffffffffffffffff1673ffffffffffffffffffffffffffffffffffffffff16815260200190815260200160002060008373ffffffffffffffffffffffffffffffffffffffff1673ffffffffffffffffffffffffffffffffffffffff16815260200190815260200160002060009054906101000a900460ff16905092915050565b60606000600b8054905067ffffffffffffffff8111156121e5576121e46141dd565b5b60405190808252806020026020018201604052801561221e57816020015b61220b613b0e565b8152602001906001900390816122035790505b50905060005b600b805490508110156123ff576000600b828154811061224757612246614e25565b5b9060005260206000200160009054906101000a900473ffffffffffffffffffffffffffffffffffffffff1690506000600960008373ffffffffffffffffffffffffffffffffffffffff1673ffffffffffffffffffffffffffffffffffffffff16815260200190815260200160002054905060405180608001604052808373ffffffffffffffffffffffffffffffffffffffff168152602001828152602001600860008481526020019081526020016000206002018054612306906147fc565b80601f0160208091040260200160405190810160405280929190818152602001828054612332906147fc565b801561237f5780601f106123545761010080835404028352916020019161237f565b820191906000526020600020905b81548152906001019060200180831161236257829003601f168201915b50505050508152602001600a60008573ffffffffffffffffffffffffffffffffffffffff1673ffffffffffffffffffffffffffffffffffffffff168152602001908152602001600020548152508484815181106123df576123de614e25565b5b6020026020010181905250505080806123f7906156ad565b915050612224565b508091505090565b60006124136006613467565b905061241f3382613475565b6040518061012001604052808381526020016007848154811061244557612444614e25565b5b90600052602060002090600902016001018054612461906147fc565b80601f016020809104026020016040519081016040528092919081815260200182805461248d906147fc565b80156124da5780601f106124af576101008083540402835291602001916124da565b820191906000526020600020905b8154815290600101906020018083116124bd57829003601f168201915b50505050508152602001600784815481106124f8576124f7614e25565b5b90600052602060002090600902016002018054612514906147fc565b80601f0160208091040260200160405190810160405280929190818152602001828054612540906147fc565b801561258d5780601f106125625761010080835404028352916020019161258d565b820191906000526020600020905b81548152906001019060200180831161257057829003601f168201915b50505050508152602001600784815481106125ab576125aa614e25565b5b906000526020600020906009020160030180546125c7906147fc565b80601f01602080910402602001604051908101604052809291908181526020018280546125f3906147fc565b80156126405780601f1061261557610100808354040283529160200191612640565b820191906000526020600020905b81548152906001019060200180831161262357829003601f168201915b505050505081526020016007848154811061265e5761265d614e25565b5b90600052602060002090600902016004015481526020016007848154811061268957612688614e25565b5b9060005260206000209060090201600501548152602001600784815481106126b4576126b3614e25565b5b9060005260206000209060090201600601548152602001600784815481106126df576126de614e25565b5b90600052602060002090600902016007015481526020016007848154811061270a57612709614e25565b5b90600052602060002090600902016008015481525060086000838152602001908152602001600020600082015181600001556020820151816001019081612751919061588c565b506040820151816002019081612767919061588c565b50606082015181600301908161277d919061588c565b506080820151816004015560a0820151816005015560c0820151816006015560e08201518160070155610100820151816008015590505080600960003373ffffffffffffffffffffffffffffffffffffffff1673ffffffffffffffffffffffffffffffffffffffff16815260200190815260200160002081905550600b339080600181540180825580915050600190039060005260206000200160009091909190916101000a81548173ffffffffffffffffffffffffffffffffffffffff021916908373ffffffffffffffffffffffffffffffffffffffff1602179055506128656006613493565b7f4bc303fd457a97b4691b9af582ce71868a3d258638c8d4f8c60988a0f0bfb8cd3382846040516128989392919061595e565b60405180910390a15050565b60007f01ffc9a7000000000000000000000000000000000000000000000000000000007bffffffffffffffffffffffffffffffffffffffffffffffffffffffff1916827bffffffffffffffffffffffffffffffffffffffffffffffffffffffff1916149050919050565b612917816134a9565b612956576040517f08c379a000000000000000000000000000000000000000000000000000000000815260040161294d90614b00565b60405180910390fd5b50565b600033905090565b816004600083815260200190815260200160002060006101000a81548173ffffffffffffffffffffffffffffffffffffffff021916908373ffffffffffffffffffffffffffffffffffffffff160217905550808273ffffffffffffffffffffffffffffffffffffffff166129d483610b72565b73ffffffffffffffffffffffffffffffffffffffff167f8c5be1e5ebec7d5bd14f71427d1e84f3dd0314c0f7b2291e5b200ac8c7c3b92560405160405180910390a45050565b600080612a2683610b72565b90508073ffffffffffffffffffffffffffffffffffffffff168473ffffffffffffffffffffffffffffffffffffffff161480612a685750612a67818561212e565b5b80612aa657508373ffffffffffffffffffffffffffffffffffffffff16612a8e8461093b565b73ffffffffffffffffffffffffffffffffffffffff16145b91505092915050565b8273ffffffffffffffffffffffffffffffffffffffff16612acf82610b72565b73ffffffffffffffffffffffffffffffffffffffff1614612b25576040517f08c379a0000000000000000000000000000000000000000000000000000000008152600401612b1c90615a07565b60405180910390fd5b600073ffffffffffffffffffffffffffffffffffffffff168273ffffffffffffffffffffffffffffffffffffffff1603612b94576040517f08c379a0000000000000000000000000000000000000000000000000000000008152600401612b8b90615a99565b60405180910390fd5b612ba183838360016134ea565b8273ffffffffffffffffffffffffffffffffffffffff16612bc182610b72565b73ffffffffffffffffffffffffffffffffffffffff1614612c17576040517f08c379a0000000000000000000000000000000000000000000000000000000008152600401612c0e90615a07565b60405180910390fd5b6004600082815260200190815260200160002060006101000a81549073ffffffffffffffffffffffffffffffffffffffff02191690556001600360008573ffffffffffffffffffffffffffffffffffffffff1673ffffffffffffffffffffffffffffffffffffffff168152602001908152602001600020600082825403925050819055506001600360008473ffffffffffffffffffffffffffffffffffffffff1673ffffffffffffffffffffffffffffffffffffffff16815260200190815260200160002060008282540192505081905550816002600083815260200190815260200160002060006101000a81548173ffffffffffffffffffffffffffffffffffffffff021916908373ffffffffffffffffffffffffffffffffffffffff160217905550808273ffffffffffffffffffffffffffffffffffffffff168473ffffffffffffffffffffffffffffffffffffffff167fddf252ad1be2c89b69c2b068fc378daa952ba7f163c4a11628f55a4df523b3ef60405160405180910390a4612da383838360016134f0565b505050565b60006002600083815260200190815260200160002060009054906101000a900473ffffffffffffffffffffffffffffffffffffffff169050919050565b600c60060160009054906101000a900460ff168015612e165750610e10600c6007015442612e139190614b20565b10155b15612e3a576000600c60060160006101000a81548160ff0219169083151502179055505b600c60080160009054906101000a900460ff168015612e6b575061012c600c6009015442612e689190614b20565b10155b15612e8f576000600c60080160006101000a81548160ff0219169083151502179055505b601660009054906101000a900460ff168015612eba5750610e1060175442612eb79190614b20565b10155b15612edb576000601660006101000a81548160ff0219169083151502179055505b565b81600c600301541015612f8d57600c60030154600a60008373ffffffffffffffffffffffffffffffffffffffff1673ffffffffffffffffffffffffffffffffffffffff16815260200190815260200160002054612f3a9190615ab9565b600a60008373ffffffffffffffffffffffffffffffffffffffff1673ffffffffffffffffffffffffffffffffffffffff168152602001908152602001600020819055506000600c60030181905550613036565b81600c60030154612f9e9190614b20565b600c6003018190555081600a60008373ffffffffffffffffffffffffffffffffffffffff1673ffffffffffffffffffffffffffffffffffffffff16815260200190815260200160002054612ff29190615ab9565b600a60008373ffffffffffffffffffffffffffffffffffffffff1673ffffffffffffffffffffffffffffffffffffffff168152602001908152602001600020819055505b5050565b8173ffffffffffffffffffffffffffffffffffffffff168373ffffffffffffffffffffffffffffffffffffffff16036130a8576040517f08c379a000000000000000000000000000000000000000000000000000000000815260040161309f90615b39565b60405180910390fd5b80600560008573ffffffffffffffffffffffffffffffffffffffff1673ffffffffffffffffffffffffffffffffffffffff16815260200190815260200160002060008473ffffffffffffffffffffffffffffffffffffffff1673ffffffffffffffffffffffffffffffffffffffff16815260200190815260200160002060006101000a81548160ff0219169083151502179055508173ffffffffffffffffffffffffffffffffffffffff168373ffffffffffffffffffffffffffffffffffffffff167f17307eab39ab6107e8899845ad3d59bd9653f200f220920489ca2b5937696c31836040516131999190613c00565b60405180910390a3505050565b6131b1848484612aaf565b6131bd848484846134f6565b6131fc576040517f08c379a00000000000000000000000000000000000000000000000000000000081526004016131f390615bcb565b60405180910390fd5b50505050565b6060600060016132118461367d565b01905060008167ffffffffffffffff8111156132305761322f6141dd565b5b6040519080825280601f01601f1916602001820160405280156132625781602001600182028036833780820191505090505b509050600082602001820190505b6001156132c5578080600190039150507f3031323334353637383961626364656600000000000000000000000000000000600a86061a8153600a85816132b9576132b8614a54565b5b04945060008503613270575b819350505050919050565b6060600082519050600081036132f85760405180602001604052806000815250915050613462565b600060036002836133099190615ab9565b6133139190614a83565b600461331f9190614a12565b905060006020826133309190615ab9565b67ffffffffffffffff811115613349576133486141dd565b5b6040519080825280601f01601f19166020018201604052801561337b5781602001600182028036833780820191505090505b5090506000604051806060016040528060408152602001615da7604091399050600181016020830160005b8681101561341f5760038101905062ffffff818a015116603f8160121c168401518060081b905060ff603f83600c1c1686015116810190508060081b905060ff603f8360061c1686015116810190508060081b905060ff603f831686015116810190508060e01b905080845260048401935050506133a6565b506003860660018114613439576002811461344957613454565b613d3d60f01b6002830352613454565b603d60f81b60018303525b508484525050819450505050505b919050565b600081600001549050919050565b61348f8282604051806020016040528060008152506137d0565b5050565b6001816000016000828254019250508190555050565b60008073ffffffffffffffffffffffffffffffffffffffff166134cb83612da8565b73ffffffffffffffffffffffffffffffffffffffff1614159050919050565b50505050565b50505050565b60006135178473ffffffffffffffffffffffffffffffffffffffff1661382b565b15613670578373ffffffffffffffffffffffffffffffffffffffff1663150b7a02613540612959565b8786866040518563ffffffff1660e01b81526004016135629493929190615c40565b6020604051808303816000875af192505050801561359e57506040513d601f19601f8201168201806040525081019061359b9190615ca1565b60015b613620573d80600081146135ce576040519150601f19603f3d011682016040523d82523d6000602084013e6135d3565b606091505b506000815103613618576040517f08c379a000000000000000000000000000000000000000000000000000000000815260040161360f90615bcb565b60405180910390fd5b805181602001fd5b63150b7a0260e01b7bffffffffffffffffffffffffffffffffffffffffffffffffffffffff1916817bffffffffffffffffffffffffffffffffffffffffffffffffffffffff191614915050613675565b600190505b949350505050565b600080600090507a184f03e93ff9f4daa797ed6e38ed64bf6a1f01000000000000000083106136db577a184f03e93ff9f4daa797ed6e38ed64bf6a1f01000000000000000083816136d1576136d0614a54565b5b0492506040810190505b6d04ee2d6d415b85acef81000000008310613718576d04ee2d6d415b85acef8100000000838161370e5761370d614a54565b5b0492506020810190505b662386f26fc10000831061374757662386f26fc10000838161373d5761373c614a54565b5b0492506010810190505b6305f5e1008310613770576305f5e100838161376657613765614a54565b5b0492506008810190505b612710831061379557612710838161378b5761378a614a54565b5b0492506004810190505b606483106137b857606483816137ae576137ad614a54565b5b0492506002810190505b600a83106137c7576001810190505b80915050919050565b6137da838361384e565b6137e760008484846134f6565b613826576040517f08c379a000000000000000000000000000000000000000000000000000000000815260040161381d90615bcb565b60405180910390fd5b505050565b6000808273ffffffffffffffffffffffffffffffffffffffff163b119050919050565b600073ffffffffffffffffffffffffffffffffffffffff168273ffffffffffffffffffffffffffffffffffffffff16036138bd576040517f08c379a00000000000000000000000000000000000000000000000000000000081526004016138b490615d1a565b60405180910390fd5b6138c6816134a9565b15613906576040517f08c379a00000000000000000000000000000000000000000000000000000000081526004016138fd90615d86565b60405180910390fd5b6139146000838360016134ea565b61391d816134a9565b1561395d576040517f08c379a000000000000000000000000000000000000000000000000000000000815260040161395490615d86565b60405180910390fd5b6001600360008473ffffffffffffffffffffffffffffffffffffffff1673ffffffffffffffffffffffffffffffffffffffff16815260200190815260200160002060008282540192505081905550816002600083815260200190815260200160002060006101000a81548173ffffffffffffffffffffffffffffffffffffffff021916908373ffffffffffffffffffffffffffffffffffffffff160217905550808273ffffffffffffffffffffffffffffffffffffffff16600073ffffffffffffffffffffffffffffffffffffffff167fddf252ad1be2c89b69c2b068fc378daa952ba7f163c4a11628f55a4df523b3ef60405160405180910390a4613a676000838360016134f0565b5050565b60405180610140016040528060608152602001606081526020016060815260200160008152602001600081526020016000815260200160001515815260200160008152602001600015158152602001600081525090565b6040518061012001604052806000815260200160608152602001606081526020016060815260200160008152602001600081526020016000815260200160008152602001600081525090565b6040518060800160405280600073ffffffffffffffffffffffffffffffffffffffff1681526020016000815260200160608152602001600081525090565b6000604051905090565b600080fd5b600080fd5b60007fffffffff0000000000000000000000000000000000000000000000000000000082169050919050565b613b9581613b60565b8114613ba057600080fd5b50565b600081359050613bb281613b8c565b92915050565b600060208284031215613bce57613bcd613b56565b5b6000613bdc84828501613ba3565b91505092915050565b60008115159050919050565b613bfa81613be5565b82525050565b6000602082019050613c156000830184613bf1565b92915050565b600081519050919050565b600082825260208201905092915050565b60005b83811015613c55578082015181840152602081019050613c3a565b60008484015250505050565b6000601f19601f8301169050919050565b6000613c7d82613c1b565b613c878185613c26565b9350613c97818560208601613c37565b613ca081613c61565b840191505092915050565b6000819050919050565b613cbe81613cab565b82525050565b613ccd81613be5565b82525050565b6000610140830160008301518482036000860152613cf18282613c72565b91505060208301518482036020860152613d0b8282613c72565b91505060408301518482036040860152613d258282613c72565b9150506060830151613d3a6060860182613cb5565b506080830151613d4d6080860182613cb5565b5060a0830151613d6060a0860182613cb5565b5060c0830151613d7360c0860182613cc4565b5060e0830151613d8660e0860182613cb5565b50610100830151613d9b610100860182613cc4565b50610120830151613db0610120860182613cb5565b508091505092915050565b60006020820190508181036000830152613dd58184613cd3565b905092915050565b600082825260208201905092915050565b6000613df982613c1b565b613e038185613ddd565b9350613e13818560208601613c37565b613e1c81613c61565b840191505092915050565b60006020820190508181036000830152613e418184613dee565b905092915050565b613e5281613cab565b8114613e5d57600080fd5b50565b600081359050613e6f81613e49565b92915050565b600060208284031215613e8b57613e8a613b56565b5b6000613e9984828501613e60565b91505092915050565b600073ffffffffffffffffffffffffffffffffffffffff82169050919050565b6000613ecd82613ea2565b9050919050565b613edd81613ec2565b82525050565b6000602082019050613ef86000830184613ed4565b92915050565b613f0781613ec2565b8114613f1257600080fd5b50565b600081359050613f2481613efe565b92915050565b60008060408385031215613f4157613f40613b56565b5b6000613f4f85828601613f15565b9250506020613f6085828601613e60565b9150509250929050565b600080600060608486031215613f8357613f82613b56565b5b6000613f9186828701613f15565b9350506020613fa286828701613f15565b9250506040613fb386828701613e60565b9150509250925092565b613fc681613cab565b82525050565b6000602082019050613fe16000830184613fbd565b92915050565b600060208284031215613ffd57613ffc613b56565b5b600061400b84828501613f15565b91505092915050565b60006101208201905061402a600083018c613fbd565b818103602083015261403c818b613dee565b90508181036040830152614050818a613dee565b905081810360608301526140648189613dee565b90506140736080830188613fbd565b61408060a0830187613fbd565b61408d60c0830186613fbd565b61409a60e0830185613fbd565b6140a8610100830184613fbd565b9a9950505050505050505050565b6140bf81613be5565b81146140ca57600080fd5b50565b6000813590506140dc816140b6565b92915050565b600080604083850312156140f9576140f8613b56565b5b600061410785828601613f15565b9250506020614118858286016140cd565b9150509250929050565b600061014082019050818103600083015261413d818d613dee565b90508181036020830152614151818c613dee565b90508181036040830152614165818b613dee565b9050614174606083018a613fbd565b6141816080830189613fbd565b61418e60a0830188613fbd565b61419b60c0830187613bf1565b6141a860e0830186613fbd565b6141b6610100830185613bf1565b6141c4610120830184613fbd565b9b9a5050505050505050505050565b600080fd5b600080fd5b7f4e487b7100000000000000000000000000000000000000000000000000000000600052604160045260246000fd5b61421582613c61565b810181811067ffffffffffffffff82111715614234576142336141dd565b5b80604052505050565b6000614247613b4c565b9050614253828261420c565b919050565b600067ffffffffffffffff821115614273576142726141dd565b5b61427c82613c61565b9050602081019050919050565b82818337600083830152505050565b60006142ab6142a684614258565b61423d565b9050828152602081018484840111156142c7576142c66141d8565b5b6142d2848285614289565b509392505050565b600082601f8301126142ef576142ee6141d3565b5b81356142ff848260208601614298565b91505092915050565b6000806000806080858703121561432257614321613b56565b5b600061433087828801613f15565b945050602061434187828801613f15565b935050604061435287828801613e60565b925050606085013567ffffffffffffffff81111561437357614372613b5b565b5b61437f878288016142da565b91505092959194509250565b600081519050919050565b600082825260208201905092915050565b6000819050602082019050919050565b6000610120830160008301516143d06000860182613cb5565b50602083015184820360208601526143e88282613c72565b915050604083015184820360408601526144028282613c72565b9150506060830151848203606086015261441c8282613c72565b91505060808301516144316080860182613cb5565b5060a083015161444460a0860182613cb5565b5060c083015161445760c0860182613cb5565b5060e083015161446a60e0860182613cb5565b5061010083015161447f610100860182613cb5565b508091505092915050565b600061449683836143b7565b905092915050565b6000602082019050919050565b60006144b68261438b565b6144c08185614396565b9350836020820285016144d2856143a7565b8060005b8581101561450e57848403895281516144ef858261448a565b94506144fa8361449e565b925060208a019950506001810190506144d6565b50829750879550505050505092915050565b6000602082019050818103600083015261453a81846144ab565b905092915050565b60006101208301600083015161455b6000860182613cb5565b50602083015184820360208601526145738282613c72565b9150506040830151848203604086015261458d8282613c72565b915050606083015184820360608601526145a78282613c72565b91505060808301516145bc6080860182613cb5565b5060a08301516145cf60a0860182613cb5565b5060c08301516145e260c0860182613cb5565b5060e08301516145f560e0860182613cb5565b5061010083015161460a610100860182613cb5565b508091505092915050565b6000602082019050818103600083015261462f8184614542565b905092915050565b6000806040838503121561464e5761464d613b56565b5b600061465c85828601613f15565b925050602061466d85828601613f15565b9150509250929050565b600081519050919050565b600082825260208201905092915050565b6000819050602082019050919050565b6146ac81613ec2565b82525050565b60006080830160008301516146ca60008601826146a3565b5060208301516146dd6020860182613cb5565b50604083015184820360408601526146f58282613c72565b915050606083015161470a6060860182613cb5565b508091505092915050565b600061472183836146b2565b905092915050565b6000602082019050919050565b600061474182614677565b61474b8185614682565b93508360208202850161475d85614693565b8060005b85811015614799578484038952815161477a8582614715565b945061478583614729565b925060208a01995050600181019050614761565b50829750879550505050505092915050565b600060208201905081810360008301526147c58184614736565b905092915050565b7f4e487b7100000000000000000000000000000000000000000000000000000000600052602260045260246000fd5b6000600282049050600182168061481457607f821691505b602082108103614827576148266147cd565b5b50919050565b7f4552433732313a20617070726f76616c20746f2063757272656e74206f776e6560008201527f7200000000000000000000000000000000000000000000000000000000000000602082015250565b6000614889602183613ddd565b91506148948261482d565b604082019050919050565b600060208201905081810360008301526148b88161487c565b9050919050565b7f4552433732313a20617070726f76652063616c6c6572206973206e6f7420746f60008201527f6b656e206f776e6572206f7220617070726f76656420666f7220616c6c000000602082015250565b600061491b603d83613ddd565b9150614926826148bf565b604082019050919050565b6000602082019050818103600083015261494a8161490e565b9050919050565b7f4552433732313a2063616c6c6572206973206e6f7420746f6b656e206f776e6560008201527f72206f7220617070726f76656400000000000000000000000000000000000000602082015250565b60006149ad602d83613ddd565b91506149b882614951565b604082019050919050565b600060208201905081810360008301526149dc816149a0565b9050919050565b7f4e487b7100000000000000000000000000000000000000000000000000000000600052601160045260246000fd5b6000614a1d82613cab565b9150614a2883613cab565b9250828202614a3681613cab565b91508282048414831517614a4d57614a4c6149e3565b5b5092915050565b7f4e487b7100000000000000000000000000000000000000000000000000000000600052601260045260246000fd5b6000614a8e82613cab565b9150614a9983613cab565b925082614aa957614aa8614a54565b5b828204905092915050565b7f4552433732313a20696e76616c696420746f6b656e2049440000000000000000600082015250565b6000614aea601883613ddd565b9150614af582614ab4565b602082019050919050565b60006020820190508181036000830152614b1981614add565b9050919050565b6000614b2b82613cab565b9150614b3683613cab565b9250828203905081811115614b4e57614b4d6149e3565b5b92915050565b7f566f6365206e616f20706f646520757361722073756120686162696c6964616460008201527f6520657370656369616c2073656d2048502e0000000000000000000000000000602082015250565b6000614bb0603283613ddd565b9150614bbb82614b54565b604082019050919050565b60006020820190508181036000830152614bdf81614ba3565b9050919050565b7f566f6365206e616f20706f646520757361722073756120686162696c6964616460008201527f65207365206f20426f7373206a6120666f6920646572726f7461646f2e000000602082015250565b6000614c42603d83613ddd565b9150614c4d82614be6565b604082019050919050565b60006020820190508181036000830152614c7181614c35565b9050919050565b7f566f63652061696e6461206e616f20706f64652075736172207375612068616260008201527f696c696461646520657370656369616c206e6f76616d656e7465000000000000602082015250565b6000614cd4603a83613ddd565b9150614cdf82614c78565b604082019050919050565b60006020820190508181036000830152614d0381614cc7565b9050919050565b600081905092915050565b7f43686172697a6172640000000000000000000000000000000000000000000000600082015250565b6000614d4b600983614d0a565b9150614d5682614d15565b600982019050919050565b6000614d6c82614d3e565b9150819050919050565b60008190508160005260206000209050919050565b60008154614d98816147fc565b614da28186614d0a565b94506001821660008114614dbd5760018114614dd257614e05565b60ff1983168652811515820286019350614e05565b614ddb85614d76565b60005b83811015614dfd57815481890152600182019150602081019050614dde565b838801955050505b50505092915050565b6000614e1a8284614d8b565b915081905092915050565b7f4e487b7100000000000000000000000000000000000000000000000000000000600052603260045260246000fd5b6000604082019050614e696000830185613fbd565b614e766020830184613fbd565b9392505050565b7f426c6173746f6973650000000000000000000000000000000000000000000000600082015250565b6000614eb3600983614d0a565b9150614ebe82614e7d565b600982019050919050565b6000614ed482614ea6565b9150819050919050565b7f56656e7573617572000000000000000000000000000000000000000000000000600082015250565b6000614f14600883614d0a565b9150614f1f82614ede565b600882019050919050565b6000614f3582614f07565b9150819050919050565b7f4552433732313a2061646472657373207a65726f206973206e6f74206120766160008201527f6c6964206f776e65720000000000000000000000000000000000000000000000602082015250565b6000614f9b602983613ddd565b9150614fa682614f3f565b604082019050919050565b60006020820190508181036000830152614fca81614f8e565b9050919050565b7f7b226e616d65223a202200000000000000000000000000000000000000000000600082015250565b6000615007600a83614d0a565b915061501282614fd1565b600a82019050919050565b600061502882613c1b565b6150328185614d0a565b9350615042818560208601613c37565b80840191505092915050565b7f202d2d204e465420233a20000000000000000000000000000000000000000000600082015250565b6000615084600b83614d0a565b915061508f8261504e565b600b82019050919050565b7f222c20226465736372697074696f6e223a2022416e2065706963204e4654222c60008201527f2022696d616765223a2022697066733a2f2f0000000000000000000000000000602082015250565b60006150f6603283614d0a565b91506151018261509a565b603282019050919050565b7f222c202261747472696275746573223a205b207b202274726169745f7479706560008201527f223a20224865616c746820506f696e7473222c202276616c7565223a20000000602082015250565b6000615168603d83614d0a565b91506151738261510c565b603d82019050919050565b7f2c20226d61785f76616c7565223a000000000000000000000000000000000000600082015250565b60006151b4600e83614d0a565b91506151bf8261517e565b600e82019050919050565b7f7d2c207b202274726169745f74797065223a202241747461636b2044616d616760008201527f65222c202276616c7565223a2000000000000000000000000000000000000000602082015250565b6000615226602d83614d0a565b9150615231826151ca565b602d82019050919050565b7f7d205d7d00000000000000000000000000000000000000000000000000000000600082015250565b6000615272600483614d0a565b915061527d8261523c565b600482019050919050565b600061529382614ffa565b915061529f828961501d565b91506152aa82615077565b91506152b6828861501d565b91506152c1826150e9565b91506152cd828761501d565b91506152d88261515b565b91506152e4828661501d565b91506152ef826151a7565b91506152fb828561501d565b915061530682615219565b9150615312828461501d565b915061531d82615265565b9150819050979650505050505050565b7f646174613a6170706c69636174696f6e2f6a736f6e3b6261736536342c000000600082015250565b6000615363601d83614d0a565b915061536e8261532d565b601d82019050919050565b600061538482615356565b9150615390828461501d565b915081905092915050565b7f4f20706572736f6e6167656d20646576652065737461722073656d207669646160008201527f2070617261207365722063757261646f00000000000000000000000000000000602082015250565b60006153f7603083613ddd565b91506154028261539b565b604082019050919050565b60006020820190508181036000830152615426816153ea565b9050919050565b7f4e616f20736520706173736172616d206173203820686f726173206e6563657360008201527f7361726961730000000000000000000000000000000000000000000000000000602082015250565b6000615489602683613ddd565b91506154948261542d565b604082019050919050565b600060208201905081810360008301526154b88161547c565b9050919050565b7f4572726f3a20506572736f6e6167656d20652f6f75206f20626f73732064657660008201527f656d20746572204850207061726120617461636172206f20626f73732e000000602082015250565b600061551b603d83613ddd565b9150615526826154bf565b604082019050919050565b6000602082019050818103600083015261554a8161550e565b9050919050565b6000819050919050565b61556c61556782613cab565b615551565b82525050565b60008160601b9050919050565b600061558a82615572565b9050919050565b600061559c8261557f565b9050919050565b6155b46155af82613ec2565b615591565b82525050565b60006155c6828761555b565b6020820191506155d682866155a3565b6014820191506155e6828561555b565b6020820191506155f6828461555b565b60208201915081905095945050505050565b600061561382613cab565b915061561e83613cab565b92508261562e5761562d614a54565b5b828206905092915050565b600061564582866155a3565b601482019150615655828561555b565b602082019150615665828461555b565b602082019150819050949350505050565b600060608201905061568b6000830186613fbd565b6156986020830185613fbd565b6156a56040830184613fbd565b949350505050565b60006156b882613cab565b91507fffffffffffffffffffffffffffffffffffffffffffffffffffffffffffffffff82036156ea576156e96149e3565b5b600182019050919050565b60006020601f8301049050919050565b600082821b905092915050565b6000600883026157427fffffffffffffffffffffffffffffffffffffffffffffffffffffffffffffffff82615705565b61574c8683615705565b95508019841693508086168417925050509392505050565b6000819050919050565b600061578961578461577f84613cab565b615764565b613cab565b9050919050565b6000819050919050565b6157a38361576e565b6157b76157af82615790565b848454615712565b825550505050565b600090565b6157cc6157bf565b6157d781848461579a565b505050565b5b818110156157fb576157f06000826157c4565b6001810190506157dd565b5050565b601f8211156158405761581181614d76565b61581a846156f5565b81016020851015615829578190505b61583d615835856156f5565b8301826157dc565b50505b505050565b600082821c905092915050565b600061586360001984600802615845565b1980831691505092915050565b600061587c8383615852565b9150826002028217905092915050565b61589582613c1b565b67ffffffffffffffff8111156158ae576158ad6141dd565b5b6158b882546147fc565b6158c38282856157ff565b600060209050601f8311600181146158f657600084156158e4578287015190505b6158ee8582615870565b865550615956565b601f19841661590486614d76565b60005b8281101561592c57848901518255600182019150602085019450602081019050615907565b868310156159495784890151615945601f891682615852565b8355505b6001600288020188555050505b505050505050565b60006060820190506159736000830186613ed4565b6159806020830185613fbd565b61598d6040830184613fbd565b949350505050565b7f4552433732313a207472616e736665722066726f6d20696e636f72726563742060008201527f6f776e6572000000000000000000000000000000000000000000000000000000602082015250565b60006159f1602583613ddd565b91506159fc82615995565b604082019050919050565b60006020820190508181036000830152615a20816159e4565b9050919050565b7f4552433732313a207472616e7366657220746f20746865207a65726f2061646460008201527f7265737300000000000000000000000000000000000000000000000000000000602082015250565b6000615a83602483613ddd565b9150615a8e82615a27565b604082019050919050565b60006020820190508181036000830152615ab281615a76565b9050919050565b6000615ac482613cab565b9150615acf83613cab565b9250828201905080821115615ae757615ae66149e3565b5b92915050565b7f4552433732313a20617070726f766520746f2063616c6c657200000000000000600082015250565b6000615b23601983613ddd565b9150615b2e82615aed565b602082019050919050565b60006020820190508181036000830152615b5281615b16565b9050919050565b7f4552433732313a207472616e7366657220746f206e6f6e20455243373231526560008201527f63656976657220696d706c656d656e7465720000000000000000000000000000602082015250565b6000615bb5603283613ddd565b9150615bc082615b59565b604082019050919050565b60006020820190508181036000830152615be481615ba8565b9050919050565b600081519050919050565b600082825260208201905092915050565b6000615c1282615beb565b615c1c8185615bf6565b9350615c2c818560208601613c37565b615c3581613c61565b840191505092915050565b6000608082019050615c556000830187613ed4565b615c626020830186613ed4565b615c6f6040830185613fbd565b8181036060830152615c818184615c07565b905095945050505050565b600081519050615c9b81613b8c565b92915050565b600060208284031215615cb757615cb6613b56565b5b6000615cc584828501615c8c565b91505092915050565b7f4552433732313a206d696e7420746f20746865207a65726f2061646472657373600082015250565b6000615d04602083613ddd565b9150615d0f82615cce565b602082019050919050565b60006020820190508181036000830152615d3381615cf7565b9050919050565b7f4552433732313a20746f6b656e20616c7265616479206d696e74656400000000600082015250565b6000615d70601c83613ddd565b9150615d7b82615d3a565b602082019050919050565b60006020820190508181036000830152615d9f81615d63565b905091905056fe4142434445464748494a4b4c4d4e4f505152535455565758595a6162636465666768696a6b6c6d6e6f707172737475767778797a303132333435363738392b2fa264697066735822122000df9bc07e14439decbe7707393414ae68cf10d0cf2c0cc244e189d1839e800a64736f6c63430008130033",
  "linkReferences": {},
  "deployedLinkReferences": {}
}