{
  "_format": "hh-sol-artifact-1",
  "contractName": "MyEpicGame",
  "sourceName": "contracts/MyEpicGame.sol",
  "abi": [
    {
      "inputs": [
        {
          "internalType": "string[]",
          "name": "characterNames",
          "type": "string[]"
        },
        {
          "internalType": "string[]",
          "name": "characterImageURIs",
          "type": "string[]"
        },
        {
          "internalType": "string[]",
          "name": "characterMainColor",
          "type": "string[]"
        },
        {
          "internalType": "uint256[]",
          "name": "characterHp",
          "type": "uint256[]"
        },
        {
          "internalType": "uint256[]",
          "name": "characterAttackDmg",
          "type": "uint256[]"
        },
        {
          "internalType": "string",
          "name": "bossName",
          "type": "string"
        },
        {
          "internalType": "string",
          "name": "bossImageURI",
          "type": "string"
        },
        {
          "internalType": "string",
          "name": "bossMainColor",
          "type": "string"
        },
        {
          "internalType": "uint256",
          "name": "bossHp",
          "type": "uint256"
        },
        {
          "internalType": "uint256",
          "name": "bossAttackDamage",
          "type": "uint256"
        }
      ],
      "stateMutability": "nonpayable",
      "type": "constructor"
    },
    {
      "anonymous": false,
      "inputs": [
        {
          "indexed": true,
          "internalType": "address",
          "name": "owner",
          "type": "address"
        },
        {
          "indexed": true,
          "internalType": "address",
          "name": "approved",
          "type": "address"
        },
        {
          "indexed": true,
          "internalType": "uint256",
          "name": "tokenId",
          "type": "uint256"
        }
      ],
      "name": "Approval",
      "type": "event"
    },
    {
      "anonymous": false,
      "inputs": [
        {
          "indexed": true,
          "internalType": "address",
          "name": "owner",
          "type": "address"
        },
        {
          "indexed": true,
          "internalType": "address",
          "name": "operator",
          "type": "address"
        },
        {
          "indexed": false,
          "internalType": "bool",
          "name": "approved",
          "type": "bool"
        }
      ],
      "name": "ApprovalForAll",
      "type": "event"
    },
    {
      "anonymous": false,
      "inputs": [
        {
          "indexed": false,
          "internalType": "uint256",
          "name": "newBossHp",
          "type": "uint256"
        },
        {
          "indexed": false,
          "internalType": "uint256",
          "name": "newPlayerHp",
          "type": "uint256"
        },
        {
          "indexed": false,
          "internalType": "uint256",
          "name": "damageDealt",
          "type": "uint256"
        }
      ],
      "name": "AttackComplete",
      "type": "event"
    },
    {
      "anonymous": false,
      "inputs": [
        {
          "indexed": false,
          "internalType": "address",
          "name": "sender",
          "type": "address"
        },
        {
          "indexed": false,
          "internalType": "uint256",
          "name": "tokenId",
          "type": "uint256"
        },
        {
          "indexed": false,
          "internalType": "uint256",
          "name": "characterIndex",
          "type": "uint256"
        }
      ],
      "name": "CharacterNFTMinted",
      "type": "event"
    },
    {
      "anonymous": false,
      "inputs": [
        {
          "indexed": false,
          "internalType": "uint256",
          "name": "newBossHp",
          "type": "uint256"
        },
        {
          "indexed": false,
          "internalType": "uint256",
          "name": "damageDealt",
          "type": "uint256"
        }
      ],
      "name": "SpecialAttackComplete",
      "type": "event"
    },
    {
      "anonymous": false,
      "inputs": [
        {
          "indexed": true,
          "internalType": "address",
          "name": "from",
          "type": "address"
        },
        {
          "indexed": true,
          "internalType": "address",
          "name": "to",
          "type": "address"
        },
        {
          "indexed": true,
          "internalType": "uint256",
          "name": "tokenId",
          "type": "uint256"
        }
      ],
      "name": "Transfer",
      "type": "event"
    },
    {
      "inputs": [
        {
          "internalType": "uint256",
          "name": "damage",
          "type": "uint256"
        }
      ],
      "name": "applyDamageConditions",
      "outputs": [
        {
          "internalType": "uint256",
          "name": "",
          "type": "uint256"
        }
      ],
      "stateMutability": "view",
      "type": "function"
    },
    {
      "inputs": [
        {
          "internalType": "address",
          "name": "to",
          "type": "address"
        },
        {
          "internalType": "uint256",
          "name": "tokenId",
          "type": "uint256"
        }
      ],
      "name": "approve",
      "outputs": [],
      "stateMutability": "nonpayable",
      "type": "function"
    },
    {
      "inputs": [],
      "name": "attackBoss",
      "outputs": [],
      "stateMutability": "nonpayable",
      "type": "function"
    },
    {
      "inputs": [
        {
          "internalType": "address",
          "name": "owner",
          "type": "address"
        }
      ],
      "name": "balanceOf",
      "outputs": [
        {
          "internalType": "uint256",
          "name": "",
          "type": "uint256"
        }
      ],
      "stateMutability": "view",
      "type": "function"
    },
    {
      "inputs": [],
      "name": "bigBoss",
      "outputs": [
        {
          "internalType": "string",
          "name": "name",
          "type": "string"
        },
        {
          "internalType": "string",
          "name": "imageURI",
          "type": "string"
        },
        {
          "internalType": "string",
          "name": "mainColor",
          "type": "string"
        },
        {
          "internalType": "uint256",
          "name": "hp",
          "type": "uint256"
        },
        {
          "internalType": "uint256",
          "name": "maxHp",
          "type": "uint256"
        },
        {
          "internalType": "uint256",
          "name": "attackDamage",
          "type": "uint256"
        },
        {
          "internalType": "bool",
          "name": "isBurnt",
          "type": "bool"
        },
        {
          "internalType": "uint256",
          "name": "lastBurntAt",
          "type": "uint256"
        },
        {
          "internalType": "bool",
          "name": "isFrozen",
          "type": "bool"
        },
        {
          "internalType": "uint256",
          "name": "lastFrozenAt",
          "type": "uint256"
        }
      ],
      "stateMutability": "view",
      "type": "function"
    },
    {
      "inputs": [],
      "name": "checkIfUserHasNFT",
      "outputs": [
        {
          "components": [
            {
              "internalType": "uint256",
              "name": "characterIndex",
              "type": "uint256"
            },
            {
              "internalType": "string",
              "name": "name",
              "type": "string"
            },
            {
              "internalType": "string",
              "name": "imageURI",
              "type": "string"
            },
            {
              "internalType": "string",
              "name": "mainColor",
              "type": "string"
            },
            {
              "internalType": "uint256",
              "name": "hp",
              "type": "uint256"
            },
            {
              "internalType": "uint256",
              "name": "maxHp",
              "type": "uint256"
            },
            {
              "internalType": "uint256",
              "name": "attackDamage",
              "type": "uint256"
            },
            {
              "internalType": "uint256",
              "name": "lastDefeatedAt",
              "type": "uint256"
            },
            {
              "internalType": "uint256",
              "name": "lastSpecialAbilityUse",
              "type": "uint256"
            }
          ],
          "internalType": "struct MyEpicGame.CharacterAttributes",
          "name": "",
          "type": "tuple"
        }
      ],
      "stateMutability": "view",
      "type": "function"
    },
    {
      "inputs": [
        {
          "internalType": "address",
          "name": "",
          "type": "address"
        }
      ],
      "name": "damageDealt",
      "outputs": [
        {
          "internalType": "uint256",
          "name": "",
          "type": "uint256"
        }
      ],
      "stateMutability": "view",
      "type": "function"
    },
    {
      "inputs": [],
      "name": "getAllDefaultCharacters",
      "outputs": [
        {
          "components": [
            {
              "internalType": "uint256",
              "name": "characterIndex",
              "type": "uint256"
            },
            {
              "internalType": "string",
              "name": "name",
              "type": "string"
            },
            {
              "internalType": "string",
              "name": "imageURI",
              "type": "string"
            },
            {
              "internalType": "string",
              "name": "mainColor",
              "type": "string"
            },
            {
              "internalType": "uint256",
              "name": "hp",
              "type": "uint256"
            },
            {
              "internalType": "uint256",
              "name": "maxHp",
              "type": "uint256"
            },
            {
              "internalType": "uint256",
              "name": "attackDamage",
              "type": "uint256"
            },
            {
              "internalType": "uint256",
              "name": "lastDefeatedAt",
              "type": "uint256"
            },
            {
              "internalType": "uint256",
              "name": "lastSpecialAbilityUse",
              "type": "uint256"
            }
          ],
          "internalType": "struct MyEpicGame.CharacterAttributes[]",
          "name": "",
          "type": "tuple[]"
        }
      ],
      "stateMutability": "view",
      "type": "function"
    },
    {
      "inputs": [],
      "name": "getAllPlayers",
      "outputs": [
        {
          "components": [
            {
              "internalType": "address",
              "name": "holderAddress",
              "type": "address"
            },
            {
              "internalType": "uint256",
              "name": "tokenId",
              "type": "uint256"
            },
            {
              "internalType": "string",
              "name": "imageURI",
              "type": "string"
            },
            {
              "internalType": "uint256",
              "name": "damageDealt",
              "type": "uint256"
            }
          ],
          "internalType": "struct MyEpicGame.PlayerCharacters[]",
          "name": "",
          "type": "tuple[]"
        }
      ],
      "stateMutability": "view",
      "type": "function"
    },
    {
      "inputs": [
        {
          "internalType": "uint256",
          "name": "tokenId",
          "type": "uint256"
        }
      ],
      "name": "getApproved",
      "outputs": [
        {
          "internalType": "address",
          "name": "",
          "type": "address"
        }
      ],
      "stateMutability": "view",
      "type": "function"
    },
    {
      "inputs": [],
      "name": "getBigBoss",
      "outputs": [
        {
          "components": [
            {
              "internalType": "string",
              "name": "name",
              "type": "string"
            },
            {
              "internalType": "string",
              "name": "imageURI",
              "type": "string"
            },
            {
              "internalType": "string",
              "name": "mainColor",
              "type": "string"
            },
            {
              "internalType": "uint256",
              "name": "hp",
              "type": "uint256"
            },
            {
              "internalType": "uint256",
              "name": "maxHp",
              "type": "uint256"
            },
            {
              "internalType": "uint256",
              "name": "attackDamage",
              "type": "uint256"
            },
            {
              "internalType": "bool",
              "name": "isBurnt",
              "type": "bool"
            },
            {
              "internalType": "uint256",
              "name": "lastBurntAt",
              "type": "uint256"
            },
            {
              "internalType": "bool",
              "name": "isFrozen",
              "type": "bool"
            },
            {
              "internalType": "uint256",
              "name": "lastFrozenAt",
              "type": "uint256"
            }
          ],
          "internalType": "struct MyEpicGame.BigBoss",
          "name": "",
          "type": "tuple"
        }
      ],
      "stateMutability": "view",
      "type": "function"
    },
    {
      "inputs": [],
      "name": "getTimeSinceDefeat",
      "outputs": [
        {
          "internalType": "uint256",
          "name": "",
          "type": "uint256"
        }
      ],
      "stateMutability": "view",
      "type": "function"
    },
    {
      "inputs": [],
      "name": "getTimeSinceSpecialAbilityUse",
      "outputs": [
        {
          "internalType": "uint256",
          "name": "",
          "type": "uint256"
        }
      ],
      "stateMutability": "view",
      "type": "function"
    },
    {
      "inputs": [],
      "name": "healCharacter",
      "outputs": [],
      "stateMutability": "nonpayable",
      "type": "function"
    },
    {
      "inputs": [
        {
          "internalType": "address",
          "name": "owner",
          "type": "address"
        },
        {
          "internalType": "address",
          "name": "operator",
          "type": "address"
        }
      ],
      "name": "isApprovedForAll",
      "outputs": [
        {
          "internalType": "bool",
          "name": "",
          "type": "bool"
        }
      ],
      "stateMutability": "view",
      "type": "function"
    },
    {
      "inputs": [
        {
          "internalType": "uint256",
          "name": "_characterIndex",
          "type": "uint256"
        }
      ],
      "name": "mintCharacterNFT",
      "outputs": [],
      "stateMutability": "nonpayable",
      "type": "function"
    },
    {
      "inputs": [],
      "name": "name",
      "outputs": [
        {
          "internalType": "string",
          "name": "",
          "type": "string"
        }
      ],
      "stateMutability": "view",
      "type": "function"
    },
    {
      "inputs": [
        {
          "internalType": "uint256",
          "name": "",
          "type": "uint256"
        }
      ],
      "name": "nftHolderAttributes",
      "outputs": [
        {
          "internalType": "uint256",
          "name": "characterIndex",
          "type": "uint256"
        },
        {
          "internalType": "string",
          "name": "name",
          "type": "string"
        },
        {
          "internalType": "string",
          "name": "imageURI",
          "type": "string"
        },
        {
          "internalType": "string",
          "name": "mainColor",
          "type": "string"
        },
        {
          "internalType": "uint256",
          "name": "hp",
          "type": "uint256"
        },
        {
          "internalType": "uint256",
          "name": "maxHp",
          "type": "uint256"
        },
        {
          "internalType": "uint256",
          "name": "attackDamage",
          "type": "uint256"
        },
        {
          "internalType": "uint256",
          "name": "lastDefeatedAt",
          "type": "uint256"
        },
        {
          "internalType": "uint256",
          "name": "lastSpecialAbilityUse",
          "type": "uint256"
        }
      ],
      "stateMutability": "view",
      "type": "function"
    },
    {
      "inputs": [
        {
          "internalType": "address",
          "name": "",
          "type": "address"
        }
      ],
      "name": "nftHolders",
      "outputs": [
        {
          "internalType": "uint256",
          "name": "",
          "type": "uint256"
        }
      ],
      "stateMutability": "view",
      "type": "function"
    },
    {
      "inputs": [
        {
          "internalType": "uint256",
          "name": "tokenId",
          "type": "uint256"
        }
      ],
      "name": "ownerOf",
      "outputs": [
        {
          "internalType": "address",
          "name": "",
          "type": "address"
        }
      ],
      "stateMutability": "view",
      "type": "function"
    },
    {
      "inputs": [
        {
          "internalType": "address",
          "name": "from",
          "type": "address"
        },
        {
          "internalType": "address",
          "name": "to",
          "type": "address"
        },
        {
          "internalType": "uint256",
          "name": "tokenId",
          "type": "uint256"
        }
      ],
      "name": "safeTransferFrom",
      "outputs": [],
      "stateMutability": "nonpayable",
      "type": "function"
    },
    {
      "inputs": [
        {
          "internalType": "address",
          "name": "from",
          "type": "address"
        },
        {
          "internalType": "address",
          "name": "to",
          "type": "address"
        },
        {
          "internalType": "uint256",
          "name": "tokenId",
          "type": "uint256"
        },
        {
          "internalType": "bytes",
          "name": "data",
          "type": "bytes"
        }
      ],
      "name": "safeTransferFrom",
      "outputs": [],
      "stateMutability": "nonpayable",
      "type": "function"
    },
    {
      "inputs": [
        {
          "internalType": "address",
          "name": "operator",
          "type": "address"
        },
        {
          "internalType": "bool",
          "name": "approved",
          "type": "bool"
        }
      ],
      "name": "setApprovalForAll",
      "outputs": [],
      "stateMutability": "nonpayable",
      "type": "function"
    },
    {
      "inputs": [
        {
          "internalType": "bytes4",
          "name": "interfaceId",
          "type": "bytes4"
        }
      ],
      "name": "supportsInterface",
      "outputs": [
        {
          "internalType": "bool",
          "name": "",
          "type": "bool"
        }
      ],
      "stateMutability": "view",
      "type": "function"
    },
    {
      "inputs": [],
      "name": "symbol",
      "outputs": [
        {
          "internalType": "string",
          "name": "",
          "type": "string"
        }
      ],
      "stateMutability": "view",
      "type": "function"
    },
    {
      "inputs": [
        {
          "internalType": "uint256",
          "name": "_tokenId",
          "type": "uint256"
        }
      ],
      "name": "tokenURI",
      "outputs": [
        {
          "internalType": "string",
          "name": "",
          "type": "string"
        }
      ],
      "stateMutability": "view",
      "type": "function"
    },
    {
      "inputs": [
        {
          "internalType": "address",
          "name": "from",
          "type": "address"
        },
        {
          "internalType": "address",
          "name": "to",
          "type": "address"
        },
        {
          "internalType": "uint256",
          "name": "tokenId",
          "type": "uint256"
        }
      ],
      "name": "transferFrom",
      "outputs": [],
      "stateMutability": "nonpayable",
      "type": "function"
    },
    {
      "inputs": [],
      "name": "useSpecialAbility",
      "outputs": [],
      "stateMutability": "nonpayable",
      "type": "function"
    }
  ],
  "bytecode": "0x60806040523480156200001157600080fd5b5060405162006a9b38038062006a9b83398181016040528101906200003791906200079a565b6040518060400160405280600681526020017f4865726f657300000000000000000000000000000000000000000000000000008152506040518060400160405280600481526020017f4845524f000000000000000000000000000000000000000000000000000000008152508160009081620000b4919062000bc9565b508060019081620000c6919062000bc9565b505050604051806101400160405280868152602001858152602001848152602001838152602001838152602001828152602001600015158152602001600081526020016000151581526020016000815250600c600082015181600001908162000130919062000bc9565b50602082015181600101908162000148919062000bc9565b50604082015181600201908162000160919062000bc9565b50606082015181600301556080820151816004015560a0820151816005015560c08201518160060160006101000a81548160ff02191690831515021790555060e082015181600701556101008201518160080160006101000a81548160ff02191690831515021790555061012082015181600901559050506000601660006101000a81548160ff021916908315150217905550600060178190555060005b8a51811015620003c15760076040518061012001604052808381526020018d848151811062000232576200023162000cb0565b5b602002602001015181526020018c848151811062000255576200025462000cb0565b5b602002602001015181526020018b848151811062000278576200027762000cb0565b5b602002602001015181526020018a84815181106200029b576200029a62000cb0565b5b602002602001015181526020018a8481518110620002be57620002bd62000cb0565b5b60200260200101518152602001898481518110620002e157620002e062000cb0565b5b60200260200101518152602001600081526020016000815250908060018154018082558091505060019003906000526020600020906009020160009091909190915060008201518160000155602082015181600101908162000344919062000bc9565b5060408201518160020190816200035c919062000bc9565b50606082015181600301908162000374919062000bc9565b506080820151816004015560a0820151816005015560c0820151816006015560e0820151816007015561010082015181600801555050600181620003b9919062000d0e565b9050620001fe565b50620003d46006620003e460201b60201c565b5050505050505050505062000d49565b6001816000016000828254019250508190555050565b6000604051905090565b600080fd5b600080fd5b600080fd5b6000601f19601f8301169050919050565b7f4e487b7100000000000000000000000000000000000000000000000000000000600052604160045260246000fd5b6200045e8262000413565b810181811067ffffffffffffffff8211171562000480576200047f62000424565b5b80604052505050565b600062000495620003fa565b9050620004a3828262000453565b919050565b600067ffffffffffffffff821115620004c657620004c562000424565b5b602082029050602081019050919050565b600080fd5b600080fd5b600067ffffffffffffffff821115620004ff57620004fe62000424565b5b6200050a8262000413565b9050602081019050919050565b60005b83811015620005375780820151818401526020810190506200051a565b60008484015250505050565b60006200055a6200055484620004e1565b62000489565b905082815260208101848484011115620005795762000578620004dc565b5b6200058684828562000517565b509392505050565b600082601f830112620005a657620005a56200040e565b5b8151620005b884826020860162000543565b91505092915050565b6000620005d8620005d284620004a8565b62000489565b90508083825260208201905060208402830185811115620005fe57620005fd620004d7565b5b835b818110156200064c57805167ffffffffffffffff8111156200062757620006266200040e565b5b8086016200063689826200058e565b8552602085019450505060208101905062000600565b5050509392505050565b600082601f8301126200066e576200066d6200040e565b5b815162000680848260208601620005c1565b91505092915050565b600067ffffffffffffffff821115620006a757620006a662000424565b5b602082029050602081019050919050565b6000819050919050565b620006cd81620006b8565b8114620006d957600080fd5b50565b600081519050620006ed81620006c2565b92915050565b60006200070a620007048462000689565b62000489565b9050808382526020820190506020840283018581111562000730576200072f620004d7565b5b835b818110156200075d5780620007488882620006dc565b84526020840193505060208101905062000732565b5050509392505050565b600082601f8301126200077f576200077e6200040e565b5b815162000791848260208601620006f3565b91505092915050565b6000806000806000806000806000806101408b8d031215620007c157620007c062000404565b5b60008b015167ffffffffffffffff811115620007e257620007e162000409565b5b620007f08d828e0162000656565b9a505060208b015167ffffffffffffffff81111562000814576200081362000409565b5b620008228d828e0162000656565b99505060408b015167ffffffffffffffff81111562000846576200084562000409565b5b620008548d828e0162000656565b98505060608b015167ffffffffffffffff81111562000878576200087762000409565b5b620008868d828e0162000767565b97505060808b015167ffffffffffffffff811115620008aa57620008a962000409565b5b620008b88d828e0162000767565b96505060a08b015167ffffffffffffffff811115620008dc57620008db62000409565b5b620008ea8d828e016200058e565b95505060c08b015167ffffffffffffffff8111156200090e576200090d62000409565b5b6200091c8d828e016200058e565b94505060e08b015167ffffffffffffffff81111562000940576200093f62000409565b5b6200094e8d828e016200058e565b935050610100620009628d828e01620006dc565b925050610120620009768d828e01620006dc565b9150509295989b9194979a5092959850565b600081519050919050565b7f4e487b7100000000000000000000000000000000000000000000000000000000600052602260045260246000fd5b60006002820490506001821680620009db57607f821691505b602082108103620009f157620009f062000993565b5b50919050565b60008190508160005260206000209050919050565b60006020601f8301049050919050565b600082821b905092915050565b60006008830262000a5b7fffffffffffffffffffffffffffffffffffffffffffffffffffffffffffffffff8262000a1c565b62000a67868362000a1c565b95508019841693508086168417925050509392505050565b6000819050919050565b600062000aaa62000aa462000a9e84620006b8565b62000a7f565b620006b8565b9050919050565b6000819050919050565b62000ac68362000a89565b62000ade62000ad58262000ab1565b84845462000a29565b825550505050565b600090565b62000af562000ae6565b62000b0281848462000abb565b505050565b5b8181101562000b2a5762000b1e60008262000aeb565b60018101905062000b08565b5050565b601f82111562000b795762000b4381620009f7565b62000b4e8462000a0c565b8101602085101562000b5e578190505b62000b7662000b6d8562000a0c565b83018262000b07565b50505b505050565b600082821c905092915050565b600062000b9e6000198460080262000b7e565b1980831691505092915050565b600062000bb9838362000b8b565b9150826002028217905092915050565b62000bd48262000988565b67ffffffffffffffff81111562000bf05762000bef62000424565b5b62000bfc8254620009c2565b62000c0982828562000b2e565b600060209050601f83116001811462000c41576000841562000c2c578287015190505b62000c38858262000bab565b86555062000ca8565b601f19841662000c5186620009f7565b60005b8281101562000c7b5784890151825560018201915060208501945060208101905062000c54565b8683101562000c9b578489015162000c97601f89168262000b8b565b8355505b6001600288020188555050505b505050505050565b7f4e487b7100000000000000000000000000000000000000000000000000000000600052603260045260246000fd5b7f4e487b7100000000000000000000000000000000000000000000000000000000600052601160045260246000fd5b600062000d1b82620006b8565b915062000d2883620006b8565b925082820190508082111562000d435762000d4262000cdf565b5b92915050565b615d428062000d596000396000f3fe608060405234801561001057600080fd5b50600436106101c45760003560e01c806395d89b41116100f9578063c87b56dd11610097578063d4f24c5b11610071578063d4f24c5b1461051a578063e985e9c514610524578063efa1c48214610554578063f8b81ef714610572576101c4565b8063c87b56dd146104c2578063c8cf27f4146104f2578063d355ae9914610510576101c4565b8063a9c32679116100d3578063a9c3267914610443578063b88d4fde1461046a578063b953084e14610486578063c5fb7aa2146104a4576101c4565b806395d89b41146103d157806398da4c95146103ef578063a22cb46514610427576101c4565b8063519ad50f11610166578063706733af11610140578063706733af1461033757806370a08231146103415780637df124a1146103715780637ea84ce9146103a1576101c4565b8063519ad50f146102b95780636352211e146102e9578063698c69bf14610319576101c4565b8063081812fc116101a2578063081812fc14610235578063095ea7b31461026557806323b872dd1461028157806342842e0e1461029d576101c4565b806301ffc9a7146101c95780630665f961146101f957806306fdde0314610217575b600080fd5b6101e360048036038101906101de9190613b70565b61058e565b6040516101f09190613bb8565b60405180910390f35b610201610670565b60405161020e9190613d73565b60405180910390f35b61021f6108a9565b60405161022c9190613ddf565b60405180910390f35b61024f600480360381019061024a9190613e2d565b61093b565b60405161025c9190613e9b565b60405180910390f35b61027f600480360381019061027a9190613ee2565b610981565b005b61029b60048036038101906102969190613f22565b610a98565b005b6102b760048036038101906102b29190613f22565b610af8565b005b6102d360048036038101906102ce9190613e2d565b610b18565b6040516102e09190613f84565b60405180910390f35b61030360048036038101906102fe9190613e2d565b610b72565b6040516103109190613e9b565b60405180910390f35b610321610bf8565b60405161032e9190613f84565b60405180910390f35b61033f610c60565b005b61035b60048036038101906103569190613f9f565b610fcf565b6040516103689190613f84565b60405180910390f35b61038b60048036038101906103869190613f9f565b611086565b6040516103989190613f84565b60405180910390f35b6103bb60048036038101906103b69190613f9f565b61109e565b6040516103c89190613f84565b60405180910390f35b6103d96110b6565b6040516103e69190613ddf565b60405180910390f35b61040960048036038101906104049190613e2d565b611148565b60405161041e99989796959493929190613fcc565b60405180910390f35b610441600480360381019061043c919061409a565b61132e565b005b61044b611344565b6040516104619a999897969594939291906140da565b60405180910390f35b610484600480360381019061047f91906142c0565b611538565b005b61048e61159a565b60405161049b91906144d8565b60405180910390f35b6104ac6117ec565b6040516104b99190613f84565b60405180910390f35b6104dc60048036038101906104d79190613e2d565b611854565b6040516104e99190613ddf565b60405180910390f35b6104fa611b04565b60405161050791906145cd565b60405180910390f35b610518611d83565b005b610522611e88565b005b61053e600480360381019061053991906145ef565b6120e6565b60405161054b9190613bb8565b60405180910390f35b61055c61217a565b6040516105699190614763565b60405180910390f35b61058c60048036038101906105879190613e2d565b6123bf565b005b60007f80ac58cd000000000000000000000000000000000000000000000000000000007bffffffffffffffffffffffffffffffffffffffffffffffffffffffff1916827bffffffffffffffffffffffffffffffffffffffffffffffffffffffff1916148061065957507f5b5e139f000000000000000000000000000000000000000000000000000000007bffffffffffffffffffffffffffffffffffffffffffffffffffffffff1916827bffffffffffffffffffffffffffffffffffffffffffffffffffffffff1916145b8061066957506106688261285c565b5b9050919050565b610678613a23565b600c60405180610140016040529081600082018054610696906147b4565b80601f01602080910402602001604051908101604052809291908181526020018280546106c2906147b4565b801561070f5780601f106106e45761010080835404028352916020019161070f565b820191906000526020600020905b8154815290600101906020018083116106f257829003601f168201915b50505050508152602001600182018054610728906147b4565b80601f0160208091040260200160405190810160405280929190818152602001828054610754906147b4565b80156107a15780601f10610776576101008083540402835291602001916107a1565b820191906000526020600020905b81548152906001019060200180831161078457829003601f168201915b505050505081526020016002820180546107ba906147b4565b80601f01602080910402602001604051908101604052809291908181526020018280546107e6906147b4565b80156108335780601f1061080857610100808354040283529160200191610833565b820191906000526020600020905b81548152906001019060200180831161081657829003601f168201915b505050505081526020016003820154815260200160048201548152602001600582015481526020016006820160009054906101000a900460ff16151515158152602001600782015481526020016008820160009054906101000a900460ff16151515158152602001600982015481525050905090565b6060600080546108b8906147b4565b80601f01602080910402602001604051908101604052809291908181526020018280546108e4906147b4565b80156109315780601f1061090657610100808354040283529160200191610931565b820191906000526020600020905b81548152906001019060200180831161091457829003601f168201915b5050505050905090565b6000610946826128c6565b6004600083815260200190815260200160002060009054906101000a900473ffffffffffffffffffffffffffffffffffffffff169050919050565b600061098c82610b72565b90508073ffffffffffffffffffffffffffffffffffffffff168373ffffffffffffffffffffffffffffffffffffffff16036109fc576040517f08c379a00000000000000000000000000000000000000000000000000000000081526004016109f390614857565b60405180910390fd5b8073ffffffffffffffffffffffffffffffffffffffff16610a1b612911565b73ffffffffffffffffffffffffffffffffffffffff161480610a4a5750610a4981610a44612911565b6120e6565b5b610a89576040517f08c379a0000000000000000000000000000000000000000000000000000000008152600401610a80906148e9565b60405180910390fd5b610a938383612919565b505050565b610aa9610aa3612911565b826129d2565b610ae8576040517f08c379a0000000000000000000000000000000000000000000000000000000008152600401610adf9061497b565b60405180910390fd5b610af3838383612a67565b505050565b610b1383838360405180602001604052806000815250611538565b505050565b6000600c60060160009054906101000a900460ff1615610b4257600282610b3f91906149ca565b91505b600c60080160009054906101000a900460ff1615610b6a57600282610b679190614a3b565b91505b819050919050565b600080610b7e83612d60565b9050600073ffffffffffffffffffffffffffffffffffffffff168173ffffffffffffffffffffffffffffffffffffffff1603610bef576040517f08c379a0000000000000000000000000000000000000000000000000000000008152600401610be690614ab8565b60405180910390fd5b80915050919050565b600060086000600960003373ffffffffffffffffffffffffffffffffffffffff1673ffffffffffffffffffffffffffffffffffffffff1681526020019081526020016000205481526020019081526020016000206008015442610c5b9190614ad8565b905090565b6000600960003373ffffffffffffffffffffffffffffffffffffffff1673ffffffffffffffffffffffffffffffffffffffff16815260200190815260200160002054905060006008600083815260200190815260200160002090506000816004015411610d02576040517f08c379a0000000000000000000000000000000000000000000000000000000008152600401610cf990614b7e565b60405180910390fd5b610e10610d0d610bf8565b1015610d4e576040517f08c379a0000000000000000000000000000000000000000000000000000000008152600401610d4590614c10565b60405180910390fd5b610d56612d9d565b6000604051602001610d6790614c87565b6040516020818303038152906040528051906020012082600101604051602001610d919190614d34565b6040516020818303038152906040528051906020012003610e51576007600081548110610dc157610dc0614d4b565b5b9060005260206000209060090201600601549050610dde81610b18565b9050610dea8133612e95565b6001600c60060160006101000a81548160ff02191690831515021790555042600c600701819055507f7c8ab04c418e7a957605993b2bde7638cb1d7613cab4b5a825ad1f22637cbf2d600c6003015482604051610e48929190614d7a565b60405180910390a15b604051602001610e6090614def565b6040516020818303038152906040528051906020012082600101604051602001610e8a9190614d34565b6040516020818303038152906040528051906020012003610f4a576007600181548110610eba57610eb9614d4b565b5b9060005260206000209060090201600601549050610ed781610b18565b9050610ee38133612e95565b6001600c60080160006101000a81548160ff02191690831515021790555042600c600901819055507f7c8ab04c418e7a957605993b2bde7638cb1d7613cab4b5a825ad1f22637cbf2d600c6003015482604051610f41929190614d7a565b60405180910390a15b604051602001610f5990614e50565b6040516020818303038152906040528051906020012082600101604051602001610f839190614d34565b6040516020818303038152906040528051906020012003610fc1576001601660006101000a81548160ff021916908315150217905550426017819055505b428260080181905550505050565b60008073ffffffffffffffffffffffffffffffffffffffff168273ffffffffffffffffffffffffffffffffffffffff160361103f576040517f08c379a000000000000000000000000000000000000000000000000000000000815260040161103690614ed7565b60405180910390fd5b600360008373ffffffffffffffffffffffffffffffffffffffff1673ffffffffffffffffffffffffffffffffffffffff168152602001908152602001600020549050919050565b60096020528060005260406000206000915090505481565b600a6020528060005260406000206000915090505481565b6060600180546110c5906147b4565b80601f01602080910402602001604051908101604052809291908181526020018280546110f1906147b4565b801561113e5780601f106111135761010080835404028352916020019161113e565b820191906000526020600020905b81548152906001019060200180831161112157829003601f168201915b5050505050905090565b6008602052806000526040600020600091509050806000015490806001018054611171906147b4565b80601f016020809104026020016040519081016040528092919081815260200182805461119d906147b4565b80156111ea5780601f106111bf576101008083540402835291602001916111ea565b820191906000526020600020905b8154815290600101906020018083116111cd57829003601f168201915b5050505050908060020180546111ff906147b4565b80601f016020809104026020016040519081016040528092919081815260200182805461122b906147b4565b80156112785780601f1061124d57610100808354040283529160200191611278565b820191906000526020600020905b81548152906001019060200180831161125b57829003601f168201915b50505050509080600301805461128d906147b4565b80601f01602080910402602001604051908101604052809291908181526020018280546112b9906147b4565b80156113065780601f106112db57610100808354040283529160200191611306565b820191906000526020600020905b8154815290600101906020018083116112e957829003601f168201915b5050505050908060040154908060050154908060060154908060070154908060080154905089565b611340611339612911565b8383612ff2565b5050565b600c806000018054611355906147b4565b80601f0160208091040260200160405190810160405280929190818152602001828054611381906147b4565b80156113ce5780601f106113a3576101008083540402835291602001916113ce565b820191906000526020600020905b8154815290600101906020018083116113b157829003601f168201915b5050505050908060010180546113e3906147b4565b80601f016020809104026020016040519081016040528092919081815260200182805461140f906147b4565b801561145c5780601f106114315761010080835404028352916020019161145c565b820191906000526020600020905b81548152906001019060200180831161143f57829003601f168201915b505050505090806002018054611471906147b4565b80601f016020809104026020016040519081016040528092919081815260200182805461149d906147b4565b80156114ea5780601f106114bf576101008083540402835291602001916114ea565b820191906000526020600020905b8154815290600101906020018083116114cd57829003601f168201915b5050505050908060030154908060040154908060050154908060060160009054906101000a900460ff16908060070154908060080160009054906101000a900460ff1690806009015490508a565b611549611543612911565b836129d2565b611588576040517f08c379a000000000000000000000000000000000000000000000000000000000815260040161157f9061497b565b60405180910390fd5b6115948484848461315e565b50505050565b60606007805480602002602001604051908101604052809291908181526020016000905b828210156117e3578382906000526020600020906009020160405180610120016040529081600082015481526020016001820180546115fc906147b4565b80601f0160208091040260200160405190810160405280929190818152602001828054611628906147b4565b80156116755780601f1061164a57610100808354040283529160200191611675565b820191906000526020600020905b81548152906001019060200180831161165857829003601f168201915b5050505050815260200160028201805461168e906147b4565b80601f01602080910402602001604051908101604052809291908181526020018280546116ba906147b4565b80156117075780601f106116dc57610100808354040283529160200191611707565b820191906000526020600020905b8154815290600101906020018083116116ea57829003601f168201915b50505050508152602001600382018054611720906147b4565b80601f016020809104026020016040519081016040528092919081815260200182805461174c906147b4565b80156117995780601f1061176e57610100808354040283529160200191611799565b820191906000526020600020905b81548152906001019060200180831161177c57829003601f168201915b5050505050815260200160048201548152602001600582015481526020016006820154815260200160078201548152602001600882015481525050815260200190600101906115be565b50505050905090565b600060086000600960003373ffffffffffffffffffffffffffffffffffffffff1673ffffffffffffffffffffffffffffffffffffffff168152602001908152602001600020548152602001908152602001600020600701544261184f9190614ad8565b905090565b60606000600860008481526020019081526020016000206040518061012001604052908160008201548152602001600182018054611891906147b4565b80601f01602080910402602001604051908101604052809291908181526020018280546118bd906147b4565b801561190a5780601f106118df5761010080835404028352916020019161190a565b820191906000526020600020905b8154815290600101906020018083116118ed57829003601f168201915b50505050508152602001600282018054611923906147b4565b80601f016020809104026020016040519081016040528092919081815260200182805461194f906147b4565b801561199c5780601f106119715761010080835404028352916020019161199c565b820191906000526020600020905b81548152906001019060200180831161197f57829003601f168201915b505050505081526020016003820180546119b5906147b4565b80601f01602080910402602001604051908101604052809291908181526020018280546119e1906147b4565b8015611a2e5780601f10611a0357610100808354040283529160200191611a2e565b820191906000526020600020905b815481529060010190602001808311611a1157829003601f168201915b505050505081526020016004820154815260200160058201548152602001600682015481526020016007820154815260200160088201548152505090506000611ad38260200151611a7e866131ba565b8460400151611a9086608001516131ba565b611a9d8760a001516131ba565b611aaa8860c001516131ba565b604051602001611abf969594939291906151ae565b604051602081830303815290604052613288565b9050600081604051602001611ae8919061529f565b6040516020818303038152906040529050809350505050919050565b611b0c613a7a565b6000600960003373ffffffffffffffffffffffffffffffffffffffff1673ffffffffffffffffffffffffffffffffffffffff1681526020019081526020016000205490506000811115611d7257600860008281526020019081526020016000206040518061012001604052908160008201548152602001600182018054611b92906147b4565b80601f0160208091040260200160405190810160405280929190818152602001828054611bbe906147b4565b8015611c0b5780601f10611be057610100808354040283529160200191611c0b565b820191906000526020600020905b815481529060010190602001808311611bee57829003601f168201915b50505050508152602001600282018054611c24906147b4565b80601f0160208091040260200160405190810160405280929190818152602001828054611c50906147b4565b8015611c9d5780601f10611c7257610100808354040283529160200191611c9d565b820191906000526020600020905b815481529060010190602001808311611c8057829003601f168201915b50505050508152602001600382018054611cb6906147b4565b80601f0160208091040260200160405190810160405280929190818152602001828054611ce2906147b4565b8015611d2f5780601f10611d0457610100808354040283529160200191611d2f565b820191906000526020600020905b815481529060010190602001808311611d1257829003601f168201915b5050505050815260200160048201548152602001600582015481526020016006820154815260200160078201548152602001600882015481525050915050611d80565b611d7a613a7a565b80925050505b90565b6000600960003373ffffffffffffffffffffffffffffffffffffffff1673ffffffffffffffffffffffffffffffffffffffff16815260200190815260200160002054905060006008600083815260200190815260200160002090506000816004015414611e25576040517f08c379a0000000000000000000000000000000000000000000000000000000008152600401611e1c90615333565b60405180910390fd5b6000611e2f6117ec565b9050617080811015611e76576040517f08c379a0000000000000000000000000000000000000000000000000000000008152600401611e6d906153c5565b60405180910390fd5b81600501548260040181905550505050565b6000600960003373ffffffffffffffffffffffffffffffffffffffff1673ffffffffffffffffffffffffffffffffffffffff1681526020019081526020016000205490506000600860008381526020019081526020016000209050611eeb612d9d565b60008160040154118015611f0457506000600c60030154115b611f43576040517f08c379a0000000000000000000000000000000000000000000000000000000008152600401611f3a90615457565b60405180910390fd5b60006064826004015433600c6003015442604051602001611f6794939291906154e0565b6040516020818303038152906040528051906020012060001c611f8a919061552e565b9050600082600601549050600a821015611fae57600281611fab91906149ca565b90505b611fb781610b18565b9050611fc38133612e95565b6000600c600501549050601660009054906101000a900460ff1615611ff257600281611fef9190614a3b565b90505b600060643386600401544260405160200161200f9392919061555f565b6040516020818303038152906040528051906020012060001c612032919061552e565b9050600c60080160009054906101000a900460ff1680156120545750600a8110155b1561205e57600091505b81856004015411612081576000856004018190555042856007018190555061209a565b8185600401546120919190614ad8565b85600401819055505b7fa8f68fa0afad68f1577a1c5c66c297b751442bbab5e98c25f07ee510a921558c600c600301548660040154856040516120d69392919061559c565b60405180910390a1505050505050565b6000600560008473ffffffffffffffffffffffffffffffffffffffff1673ffffffffffffffffffffffffffffffffffffffff16815260200190815260200160002060008373ffffffffffffffffffffffffffffffffffffffff1673ffffffffffffffffffffffffffffffffffffffff16815260200190815260200160002060009054906101000a900460ff16905092915050565b60606000600b8054905067ffffffffffffffff81111561219d5761219c614195565b5b6040519080825280602002602001820160405280156121d657816020015b6121c3613ac6565b8152602001906001900390816121bb5790505b50905060005b600b805490508110156123b7576000600b82815481106121ff576121fe614d4b565b5b9060005260206000200160009054906101000a900473ffffffffffffffffffffffffffffffffffffffff1690506000600960008373ffffffffffffffffffffffffffffffffffffffff1673ffffffffffffffffffffffffffffffffffffffff16815260200190815260200160002054905060405180608001604052808373ffffffffffffffffffffffffffffffffffffffff1681526020018281526020016008600084815260200190815260200160002060020180546122be906147b4565b80601f01602080910402602001604051908101604052809291908181526020018280546122ea906147b4565b80156123375780601f1061230c57610100808354040283529160200191612337565b820191906000526020600020905b81548152906001019060200180831161231a57829003601f168201915b50505050508152602001600a60008573ffffffffffffffffffffffffffffffffffffffff1673ffffffffffffffffffffffffffffffffffffffff1681526020019081526020016000205481525084848151811061239757612396614d4b565b5b6020026020010181905250505080806123af906155d3565b9150506121dc565b508091505090565b60006123cb600661341f565b90506123d7338261342d565b604051806101200160405280838152602001600784815481106123fd576123fc614d4b565b5b90600052602060002090600902016001018054612419906147b4565b80601f0160208091040260200160405190810160405280929190818152602001828054612445906147b4565b80156124925780601f1061246757610100808354040283529160200191612492565b820191906000526020600020905b81548152906001019060200180831161247557829003601f168201915b50505050508152602001600784815481106124b0576124af614d4b565b5b906000526020600020906009020160020180546124cc906147b4565b80601f01602080910402602001604051908101604052809291908181526020018280546124f8906147b4565b80156125455780601f1061251a57610100808354040283529160200191612545565b820191906000526020600020905b81548152906001019060200180831161252857829003601f168201915b505050505081526020016007848154811061256357612562614d4b565b5b9060005260206000209060090201600301805461257f906147b4565b80601f01602080910402602001604051908101604052809291908181526020018280546125ab906147b4565b80156125f85780601f106125cd576101008083540402835291602001916125f8565b820191906000526020600020905b8154815290600101906020018083116125db57829003601f168201915b505050505081526020016007848154811061261657612615614d4b565b5b90600052602060002090600902016004015481526020016007848154811061264157612640614d4b565b5b90600052602060002090600902016005015481526020016007848154811061266c5761266b614d4b565b5b90600052602060002090600902016006015481526020016007848154811061269757612696614d4b565b5b9060005260206000209060090201600701548152602001600784815481106126c2576126c1614d4b565b5b9060005260206000209060090201600801548152506008600083815260200190815260200160002060008201518160000155602082015181600101908161270991906157b2565b50604082015181600201908161271f91906157b2565b50606082015181600301908161273591906157b2565b506080820151816004015560a0820151816005015560c0820151816006015560e08201518160070155610100820151816008015590505080600960003373ffffffffffffffffffffffffffffffffffffffff1673ffffffffffffffffffffffffffffffffffffffff16815260200190815260200160002081905550600b339080600181540180825580915050600190039060005260206000200160009091909190916101000a81548173ffffffffffffffffffffffffffffffffffffffff021916908373ffffffffffffffffffffffffffffffffffffffff16021790555061281d600661344b565b7f4bc303fd457a97b4691b9af582ce71868a3d258638c8d4f8c60988a0f0bfb8cd33828460405161285093929190615884565b60405180910390a15050565b60007f01ffc9a7000000000000000000000000000000000000000000000000000000007bffffffffffffffffffffffffffffffffffffffffffffffffffffffff1916827bffffffffffffffffffffffffffffffffffffffffffffffffffffffff1916149050919050565b6128cf81613461565b61290e576040517f08c379a000000000000000000000000000000000000000000000000000000000815260040161290590614ab8565b60405180910390fd5b50565b600033905090565b816004600083815260200190815260200160002060006101000a81548173ffffffffffffffffffffffffffffffffffffffff021916908373ffffffffffffffffffffffffffffffffffffffff160217905550808273ffffffffffffffffffffffffffffffffffffffff1661298c83610b72565b73ffffffffffffffffffffffffffffffffffffffff167f8c5be1e5ebec7d5bd14f71427d1e84f3dd0314c0f7b2291e5b200ac8c7c3b92560405160405180910390a45050565b6000806129de83610b72565b90508073ffffffffffffffffffffffffffffffffffffffff168473ffffffffffffffffffffffffffffffffffffffff161480612a205750612a1f81856120e6565b5b80612a5e57508373ffffffffffffffffffffffffffffffffffffffff16612a468461093b565b73ffffffffffffffffffffffffffffffffffffffff16145b91505092915050565b8273ffffffffffffffffffffffffffffffffffffffff16612a8782610b72565b73ffffffffffffffffffffffffffffffffffffffff1614612add576040517f08c379a0000000000000000000000000000000000000000000000000000000008152600401612ad49061592d565b60405180910390fd5b600073ffffffffffffffffffffffffffffffffffffffff168273ffffffffffffffffffffffffffffffffffffffff1603612b4c576040517f08c379a0000000000000000000000000000000000000000000000000000000008152600401612b43906159bf565b60405180910390fd5b612b5983838360016134a2565b8273ffffffffffffffffffffffffffffffffffffffff16612b7982610b72565b73ffffffffffffffffffffffffffffffffffffffff1614612bcf576040517f08c379a0000000000000000000000000000000000000000000000000000000008152600401612bc69061592d565b60405180910390fd5b6004600082815260200190815260200160002060006101000a81549073ffffffffffffffffffffffffffffffffffffffff02191690556001600360008573ffffffffffffffffffffffffffffffffffffffff1673ffffffffffffffffffffffffffffffffffffffff168152602001908152602001600020600082825403925050819055506001600360008473ffffffffffffffffffffffffffffffffffffffff1673ffffffffffffffffffffffffffffffffffffffff16815260200190815260200160002060008282540192505081905550816002600083815260200190815260200160002060006101000a81548173ffffffffffffffffffffffffffffffffffffffff021916908373ffffffffffffffffffffffffffffffffffffffff160217905550808273ffffffffffffffffffffffffffffffffffffffff168473ffffffffffffffffffffffffffffffffffffffff167fddf252ad1be2c89b69c2b068fc378daa952ba7f163c4a11628f55a4df523b3ef60405160405180910390a4612d5b83838360016134a8565b505050565b60006002600083815260200190815260200160002060009054906101000a900473ffffffffffffffffffffffffffffffffffffffff169050919050565b600c60060160009054906101000a900460ff168015612dce5750610e10600c6007015442612dcb9190614ad8565b10155b15612df2576000600c60060160006101000a81548160ff0219169083151502179055505b600c60080160009054906101000a900460ff168015612e23575061012c600c6009015442612e209190614ad8565b10155b15612e47576000600c60080160006101000a81548160ff0219169083151502179055505b601660009054906101000a900460ff168015612e725750610e1060175442612e6f9190614ad8565b10155b15612e93576000601660006101000a81548160ff0219169083151502179055505b565b81600c600301541015612f4557600c60030154600a60008373ffffffffffffffffffffffffffffffffffffffff1673ffffffffffffffffffffffffffffffffffffffff16815260200190815260200160002054612ef291906159df565b600a60008373ffffffffffffffffffffffffffffffffffffffff1673ffffffffffffffffffffffffffffffffffffffff168152602001908152602001600020819055506000600c60030181905550612fee565b81600c60030154612f569190614ad8565b600c6003018190555081600a60008373ffffffffffffffffffffffffffffffffffffffff1673ffffffffffffffffffffffffffffffffffffffff16815260200190815260200160002054612faa91906159df565b600a60008373ffffffffffffffffffffffffffffffffffffffff1673ffffffffffffffffffffffffffffffffffffffff168152602001908152602001600020819055505b5050565b8173ffffffffffffffffffffffffffffffffffffffff168373ffffffffffffffffffffffffffffffffffffffff1603613060576040517f08c379a000000000000000000000000000000000000000000000000000000000815260040161305790615a5f565b60405180910390fd5b80600560008573ffffffffffffffffffffffffffffffffffffffff1673ffffffffffffffffffffffffffffffffffffffff16815260200190815260200160002060008473ffffffffffffffffffffffffffffffffffffffff1673ffffffffffffffffffffffffffffffffffffffff16815260200190815260200160002060006101000a81548160ff0219169083151502179055508173ffffffffffffffffffffffffffffffffffffffff168373ffffffffffffffffffffffffffffffffffffffff167f17307eab39ab6107e8899845ad3d59bd9653f200f220920489ca2b5937696c31836040516131519190613bb8565b60405180910390a3505050565b613169848484612a67565b613175848484846134ae565b6131b4576040517f08c379a00000000000000000000000000000000000000000000000000000000081526004016131ab90615af1565b60405180910390fd5b50505050565b6060600060016131c984613635565b01905060008167ffffffffffffffff8111156131e8576131e7614195565b5b6040519080825280601f01601f19166020018201604052801561321a5781602001600182028036833780820191505090505b509050600082602001820190505b60011561327d578080600190039150507f3031323334353637383961626364656600000000000000000000000000000000600a86061a8153600a858161327157613270614a0c565b5b04945060008503613228575b819350505050919050565b6060600082519050600081036132b0576040518060200160405280600081525091505061341a565b600060036002836132c191906159df565b6132cb9190614a3b565b60046132d791906149ca565b905060006020826132e891906159df565b67ffffffffffffffff81111561330157613300614195565b5b6040519080825280601f01601f1916602001820160405280156133335781602001600182028036833780820191505090505b5090506000604051806060016040528060408152602001615ccd604091399050600181016020830160005b868110156133d75760038101905062ffffff818a015116603f8160121c168401518060081b905060ff603f83600c1c1686015116810190508060081b905060ff603f8360061c1686015116810190508060081b905060ff603f831686015116810190508060e01b9050808452600484019350505061335e565b5060038606600181146133f157600281146134015761340c565b613d3d60f01b600283035261340c565b603d60f81b60018303525b508484525050819450505050505b919050565b600081600001549050919050565b613447828260405180602001604052806000815250613788565b5050565b6001816000016000828254019250508190555050565b60008073ffffffffffffffffffffffffffffffffffffffff1661348383612d60565b73ffffffffffffffffffffffffffffffffffffffff1614159050919050565b50505050565b50505050565b60006134cf8473ffffffffffffffffffffffffffffffffffffffff166137e3565b15613628578373ffffffffffffffffffffffffffffffffffffffff1663150b7a026134f8612911565b8786866040518563ffffffff1660e01b815260040161351a9493929190615b66565b6020604051808303816000875af192505050801561355657506040513d601f19601f820116820180604052508101906135539190615bc7565b60015b6135d8573d8060008114613586576040519150601f19603f3d011682016040523d82523d6000602084013e61358b565b606091505b5060008151036135d0576040517f08c379a00000000000000000000000000000000000000000000000000000000081526004016135c790615af1565b60405180910390fd5b805181602001fd5b63150b7a0260e01b7bffffffffffffffffffffffffffffffffffffffffffffffffffffffff1916817bffffffffffffffffffffffffffffffffffffffffffffffffffffffff19161491505061362d565b600190505b949350505050565b600080600090507a184f03e93ff9f4daa797ed6e38ed64bf6a1f0100000000000000008310613693577a184f03e93ff9f4daa797ed6e38ed64bf6a1f010000000000000000838161368957613688614a0c565b5b0492506040810190505b6d04ee2d6d415b85acef810000000083106136d0576d04ee2d6d415b85acef810000000083816136c6576136c5614a0c565b5b0492506020810190505b662386f26fc1000083106136ff57662386f26fc1000083816136f5576136f4614a0c565b5b0492506010810190505b6305f5e1008310613728576305f5e100838161371e5761371d614a0c565b5b0492506008810190505b612710831061374d57612710838161374357613742614a0c565b5b0492506004810190505b60648310613770576064838161376657613765614a0c565b5b0492506002810190505b600a831061377f576001810190505b80915050919050565b6137928383613806565b61379f60008484846134ae565b6137de576040517f08c379a00000000000000000000000000000000000000000000000000000000081526004016137d590615af1565b60405180910390fd5b505050565b6000808273ffffffffffffffffffffffffffffffffffffffff163b119050919050565b600073ffffffffffffffffffffffffffffffffffffffff168273ffffffffffffffffffffffffffffffffffffffff1603613875576040517f08c379a000000000000000000000000000000000000000000000000000000000815260040161386c90615c40565b60405180910390fd5b61387e81613461565b156138be576040517f08c379a00000000000000000000000000000000000000000000000000000000081526004016138b590615cac565b60405180910390fd5b6138cc6000838360016134a2565b6138d581613461565b15613915576040517f08c379a000000000000000000000000000000000000000000000000000000000815260040161390c90615cac565b60405180910390fd5b6001600360008473ffffffffffffffffffffffffffffffffffffffff1673ffffffffffffffffffffffffffffffffffffffff16815260200190815260200160002060008282540192505081905550816002600083815260200190815260200160002060006101000a81548173ffffffffffffffffffffffffffffffffffffffff021916908373ffffffffffffffffffffffffffffffffffffffff160217905550808273ffffffffffffffffffffffffffffffffffffffff16600073ffffffffffffffffffffffffffffffffffffffff167fddf252ad1be2c89b69c2b068fc378daa952ba7f163c4a11628f55a4df523b3ef60405160405180910390a4613a1f6000838360016134a8565b5050565b60405180610140016040528060608152602001606081526020016060815260200160008152602001600081526020016000815260200160001515815260200160008152602001600015158152602001600081525090565b6040518061012001604052806000815260200160608152602001606081526020016060815260200160008152602001600081526020016000815260200160008152602001600081525090565b6040518060800160405280600073ffffffffffffffffffffffffffffffffffffffff1681526020016000815260200160608152602001600081525090565b6000604051905090565b600080fd5b600080fd5b60007fffffffff0000000000000000000000000000000000000000000000000000000082169050919050565b613b4d81613b18565b8114613b5857600080fd5b50565b600081359050613b6a81613b44565b92915050565b600060208284031215613b8657613b85613b0e565b5b6000613b9484828501613b5b565b91505092915050565b60008115159050919050565b613bb281613b9d565b82525050565b6000602082019050613bcd6000830184613ba9565b92915050565b600081519050919050565b600082825260208201905092915050565b60005b83811015613c0d578082015181840152602081019050613bf2565b60008484015250505050565b6000601f19601f8301169050919050565b6000613c3582613bd3565b613c3f8185613bde565b9350613c4f818560208601613bef565b613c5881613c19565b840191505092915050565b6000819050919050565b613c7681613c63565b82525050565b613c8581613b9d565b82525050565b6000610140830160008301518482036000860152613ca98282613c2a565b91505060208301518482036020860152613cc38282613c2a565b91505060408301518482036040860152613cdd8282613c2a565b9150506060830151613cf26060860182613c6d565b506080830151613d056080860182613c6d565b5060a0830151613d1860a0860182613c6d565b5060c0830151613d2b60c0860182613c7c565b5060e0830151613d3e60e0860182613c6d565b50610100830151613d53610100860182613c7c565b50610120830151613d68610120860182613c6d565b508091505092915050565b60006020820190508181036000830152613d8d8184613c8b565b905092915050565b600082825260208201905092915050565b6000613db182613bd3565b613dbb8185613d95565b9350613dcb818560208601613bef565b613dd481613c19565b840191505092915050565b60006020820190508181036000830152613df98184613da6565b905092915050565b613e0a81613c63565b8114613e1557600080fd5b50565b600081359050613e2781613e01565b92915050565b600060208284031215613e4357613e42613b0e565b5b6000613e5184828501613e18565b91505092915050565b600073ffffffffffffffffffffffffffffffffffffffff82169050919050565b6000613e8582613e5a565b9050919050565b613e9581613e7a565b82525050565b6000602082019050613eb06000830184613e8c565b92915050565b613ebf81613e7a565b8114613eca57600080fd5b50565b600081359050613edc81613eb6565b92915050565b60008060408385031215613ef957613ef8613b0e565b5b6000613f0785828601613ecd565b9250506020613f1885828601613e18565b9150509250929050565b600080600060608486031215613f3b57613f3a613b0e565b5b6000613f4986828701613ecd565b9350506020613f5a86828701613ecd565b9250506040613f6b86828701613e18565b9150509250925092565b613f7e81613c63565b82525050565b6000602082019050613f996000830184613f75565b92915050565b600060208284031215613fb557613fb4613b0e565b5b6000613fc384828501613ecd565b91505092915050565b600061012082019050613fe2600083018c613f75565b8181036020830152613ff4818b613da6565b90508181036040830152614008818a613da6565b9050818103606083015261401c8189613da6565b905061402b6080830188613f75565b61403860a0830187613f75565b61404560c0830186613f75565b61405260e0830185613f75565b614060610100830184613f75565b9a9950505050505050505050565b61407781613b9d565b811461408257600080fd5b50565b6000813590506140948161406e565b92915050565b600080604083850312156140b1576140b0613b0e565b5b60006140bf85828601613ecd565b92505060206140d085828601614085565b9150509250929050565b60006101408201905081810360008301526140f5818d613da6565b90508181036020830152614109818c613da6565b9050818103604083015261411d818b613da6565b905061412c606083018a613f75565b6141396080830189613f75565b61414660a0830188613f75565b61415360c0830187613ba9565b61416060e0830186613f75565b61416e610100830185613ba9565b61417c610120830184613f75565b9b9a5050505050505050505050565b600080fd5b600080fd5b7f4e487b7100000000000000000000000000000000000000000000000000000000600052604160045260246000fd5b6141cd82613c19565b810181811067ffffffffffffffff821117156141ec576141eb614195565b5b80604052505050565b60006141ff613b04565b905061420b82826141c4565b919050565b600067ffffffffffffffff82111561422b5761422a614195565b5b61423482613c19565b9050602081019050919050565b82818337600083830152505050565b600061426361425e84614210565b6141f5565b90508281526020810184848401111561427f5761427e614190565b5b61428a848285614241565b509392505050565b600082601f8301126142a7576142a661418b565b5b81356142b7848260208601614250565b91505092915050565b600080600080608085870312156142da576142d9613b0e565b5b60006142e887828801613ecd565b94505060206142f987828801613ecd565b935050604061430a87828801613e18565b925050606085013567ffffffffffffffff81111561432b5761432a613b13565b5b61433787828801614292565b91505092959194509250565b600081519050919050565b600082825260208201905092915050565b6000819050602082019050919050565b6000610120830160008301516143886000860182613c6d565b50602083015184820360208601526143a08282613c2a565b915050604083015184820360408601526143ba8282613c2a565b915050606083015184820360608601526143d48282613c2a565b91505060808301516143e96080860182613c6d565b5060a08301516143fc60a0860182613c6d565b5060c083015161440f60c0860182613c6d565b5060e083015161442260e0860182613c6d565b50610100830151614437610100860182613c6d565b508091505092915050565b600061444e838361436f565b905092915050565b6000602082019050919050565b600061446e82614343565b614478818561434e565b93508360208202850161448a8561435f565b8060005b858110156144c657848403895281516144a78582614442565b94506144b283614456565b925060208a0199505060018101905061448e565b50829750879550505050505092915050565b600060208201905081810360008301526144f28184614463565b905092915050565b6000610120830160008301516145136000860182613c6d565b506020830151848203602086015261452b8282613c2a565b915050604083015184820360408601526145458282613c2a565b9150506060830151848203606086015261455f8282613c2a565b91505060808301516145746080860182613c6d565b5060a083015161458760a0860182613c6d565b5060c083015161459a60c0860182613c6d565b5060e08301516145ad60e0860182613c6d565b506101008301516145c2610100860182613c6d565b508091505092915050565b600060208201905081810360008301526145e781846144fa565b905092915050565b6000806040838503121561460657614605613b0e565b5b600061461485828601613ecd565b925050602061462585828601613ecd565b9150509250929050565b600081519050919050565b600082825260208201905092915050565b6000819050602082019050919050565b61466481613e7a565b82525050565b6000608083016000830151614682600086018261465b565b5060208301516146956020860182613c6d565b50604083015184820360408601526146ad8282613c2a565b91505060608301516146c26060860182613c6d565b508091505092915050565b60006146d9838361466a565b905092915050565b6000602082019050919050565b60006146f98261462f565b614703818561463a565b9350836020820285016147158561464b565b8060005b85811015614751578484038952815161473285826146cd565b945061473d836146e1565b925060208a01995050600181019050614719565b50829750879550505050505092915050565b6000602082019050818103600083015261477d81846146ee565b905092915050565b7f4e487b7100000000000000000000000000000000000000000000000000000000600052602260045260246000fd5b600060028204905060018216806147cc57607f821691505b6020821081036147df576147de614785565b5b50919050565b7f4552433732313a20617070726f76616c20746f2063757272656e74206f776e6560008201527f7200000000000000000000000000000000000000000000000000000000000000602082015250565b6000614841602183613d95565b915061484c826147e5565b604082019050919050565b6000602082019050818103600083015261487081614834565b9050919050565b7f4552433732313a20617070726f76652063616c6c6572206973206e6f7420746f60008201527f6b656e206f776e6572206f7220617070726f76656420666f7220616c6c000000602082015250565b60006148d3603d83613d95565b91506148de82614877565b604082019050919050565b60006020820190508181036000830152614902816148c6565b9050919050565b7f4552433732313a2063616c6c6572206973206e6f7420746f6b656e206f776e6560008201527f72206f7220617070726f76656400000000000000000000000000000000000000602082015250565b6000614965602d83613d95565b915061497082614909565b604082019050919050565b6000602082019050818103600083015261499481614958565b9050919050565b7f4e487b7100000000000000000000000000000000000000000000000000000000600052601160045260246000fd5b60006149d582613c63565b91506149e083613c63565b92508282026149ee81613c63565b91508282048414831517614a0557614a0461499b565b5b5092915050565b7f4e487b7100000000000000000000000000000000000000000000000000000000600052601260045260246000fd5b6000614a4682613c63565b9150614a5183613c63565b925082614a6157614a60614a0c565b5b828204905092915050565b7f4552433732313a20696e76616c696420746f6b656e2049440000000000000000600082015250565b6000614aa2601883613d95565b9150614aad82614a6c565b602082019050919050565b60006020820190508181036000830152614ad181614a95565b9050919050565b6000614ae382613c63565b9150614aee83613c63565b9250828203905081811115614b0657614b0561499b565b5b92915050565b7f566f6365206e616f20706f646520757361722073756120686162696c6964616460008201527f6520657370656369616c2073656d2048502e0000000000000000000000000000602082015250565b6000614b68603283613d95565b9150614b7382614b0c565b604082019050919050565b60006020820190508181036000830152614b9781614b5b565b9050919050565b7f566f63652061696e6461206e616f20706f64652075736172207375612068616260008201527f696c696461646520657370656369616c206e6f76616d656e7465000000000000602082015250565b6000614bfa603a83613d95565b9150614c0582614b9e565b604082019050919050565b60006020820190508181036000830152614c2981614bed565b9050919050565b600081905092915050565b7f43686172697a6172640000000000000000000000000000000000000000000000600082015250565b6000614c71600983614c30565b9150614c7c82614c3b565b600982019050919050565b6000614c9282614c64565b9150819050919050565b60008190508160005260206000209050919050565b60008154614cbe816147b4565b614cc88186614c30565b94506001821660008114614ce35760018114614cf857614d2b565b60ff1983168652811515820286019350614d2b565b614d0185614c9c565b60005b83811015614d2357815481890152600182019150602081019050614d04565b838801955050505b50505092915050565b6000614d408284614cb1565b915081905092915050565b7f4e487b7100000000000000000000000000000000000000000000000000000000600052603260045260246000fd5b6000604082019050614d8f6000830185613f75565b614d9c6020830184613f75565b9392505050565b7f426c6173746f6973650000000000000000000000000000000000000000000000600082015250565b6000614dd9600983614c30565b9150614de482614da3565b600982019050919050565b6000614dfa82614dcc565b9150819050919050565b7f56656e7573617572000000000000000000000000000000000000000000000000600082015250565b6000614e3a600883614c30565b9150614e4582614e04565b600882019050919050565b6000614e5b82614e2d565b9150819050919050565b7f4552433732313a2061646472657373207a65726f206973206e6f74206120766160008201527f6c6964206f776e65720000000000000000000000000000000000000000000000602082015250565b6000614ec1602983613d95565b9150614ecc82614e65565b604082019050919050565b60006020820190508181036000830152614ef081614eb4565b9050919050565b7f7b226e616d65223a202200000000000000000000000000000000000000000000600082015250565b6000614f2d600a83614c30565b9150614f3882614ef7565b600a82019050919050565b6000614f4e82613bd3565b614f588185614c30565b9350614f68818560208601613bef565b80840191505092915050565b7f202d2d204e465420233a20000000000000000000000000000000000000000000600082015250565b6000614faa600b83614c30565b9150614fb582614f74565b600b82019050919050565b7f222c20226465736372697074696f6e223a2022416e2065706963204e4654222c60008201527f2022696d616765223a2022697066733a2f2f0000000000000000000000000000602082015250565b600061501c603283614c30565b915061502782614fc0565b603282019050919050565b7f222c202261747472696275746573223a205b207b202274726169745f7479706560008201527f223a20224865616c746820506f696e7473222c202276616c7565223a20000000602082015250565b600061508e603d83614c30565b915061509982615032565b603d82019050919050565b7f2c20226d61785f76616c7565223a000000000000000000000000000000000000600082015250565b60006150da600e83614c30565b91506150e5826150a4565b600e82019050919050565b7f7d2c207b202274726169745f74797065223a202241747461636b2044616d616760008201527f65222c202276616c7565223a2000000000000000000000000000000000000000602082015250565b600061514c602d83614c30565b9150615157826150f0565b602d82019050919050565b7f7d205d7d00000000000000000000000000000000000000000000000000000000600082015250565b6000615198600483614c30565b91506151a382615162565b600482019050919050565b60006151b982614f20565b91506151c58289614f43565b91506151d082614f9d565b91506151dc8288614f43565b91506151e78261500f565b91506151f38287614f43565b91506151fe82615081565b915061520a8286614f43565b9150615215826150cd565b91506152218285614f43565b915061522c8261513f565b91506152388284614f43565b91506152438261518b565b9150819050979650505050505050565b7f646174613a6170706c69636174696f6e2f6a736f6e3b6261736536342c000000600082015250565b6000615289601d83614c30565b915061529482615253565b601d82019050919050565b60006152aa8261527c565b91506152b68284614f43565b915081905092915050565b7f4f20706572736f6e6167656d20646576652065737461722073656d207669646160008201527f2070617261207365722063757261646f00000000000000000000000000000000602082015250565b600061531d603083613d95565b9150615328826152c1565b604082019050919050565b6000602082019050818103600083015261534c81615310565b9050919050565b7f4e616f20736520706173736172616d206173203820686f726173206e6563657360008201527f7361726961730000000000000000000000000000000000000000000000000000602082015250565b60006153af602683613d95565b91506153ba82615353565b604082019050919050565b600060208201905081810360008301526153de816153a2565b9050919050565b7f4572726f3a20506572736f6e6167656d20652f6f75206f20626f73732064657660008201527f656d20746572204850207061726120617461636172206f20626f73732e000000602082015250565b6000615441603d83613d95565b915061544c826153e5565b604082019050919050565b6000602082019050818103600083015261547081615434565b9050919050565b6000819050919050565b61549261548d82613c63565b615477565b82525050565b60008160601b9050919050565b60006154b082615498565b9050919050565b60006154c2826154a5565b9050919050565b6154da6154d582613e7a565b6154b7565b82525050565b60006154ec8287615481565b6020820191506154fc82866154c9565b60148201915061550c8285615481565b60208201915061551c8284615481565b60208201915081905095945050505050565b600061553982613c63565b915061554483613c63565b92508261555457615553614a0c565b5b828206905092915050565b600061556b82866154c9565b60148201915061557b8285615481565b60208201915061558b8284615481565b602082019150819050949350505050565b60006060820190506155b16000830186613f75565b6155be6020830185613f75565b6155cb6040830184613f75565b949350505050565b60006155de82613c63565b91507fffffffffffffffffffffffffffffffffffffffffffffffffffffffffffffffff82036156105761560f61499b565b5b600182019050919050565b60006020601f8301049050919050565b600082821b905092915050565b6000600883026156687fffffffffffffffffffffffffffffffffffffffffffffffffffffffffffffffff8261562b565b615672868361562b565b95508019841693508086168417925050509392505050565b6000819050919050565b60006156af6156aa6156a584613c63565b61568a565b613c63565b9050919050565b6000819050919050565b6156c983615694565b6156dd6156d5826156b6565b848454615638565b825550505050565b600090565b6156f26156e5565b6156fd8184846156c0565b505050565b5b81811015615721576157166000826156ea565b600181019050615703565b5050565b601f8211156157665761573781614c9c565b6157408461561b565b8101602085101561574f578190505b61576361575b8561561b565b830182615702565b50505b505050565b600082821c905092915050565b60006157896000198460080261576b565b1980831691505092915050565b60006157a28383615778565b9150826002028217905092915050565b6157bb82613bd3565b67ffffffffffffffff8111156157d4576157d3614195565b5b6157de82546147b4565b6157e9828285615725565b600060209050601f83116001811461581c576000841561580a578287015190505b6158148582615796565b86555061587c565b601f19841661582a86614c9c565b60005b828110156158525784890151825560018201915060208501945060208101905061582d565b8683101561586f578489015161586b601f891682615778565b8355505b6001600288020188555050505b505050505050565b60006060820190506158996000830186613e8c565b6158a66020830185613f75565b6158b36040830184613f75565b949350505050565b7f4552433732313a207472616e736665722066726f6d20696e636f72726563742060008201527f6f776e6572000000000000000000000000000000000000000000000000000000602082015250565b6000615917602583613d95565b9150615922826158bb565b604082019050919050565b600060208201905081810360008301526159468161590a565b9050919050565b7f4552433732313a207472616e7366657220746f20746865207a65726f2061646460008201527f7265737300000000000000000000000000000000000000000000000000000000602082015250565b60006159a9602483613d95565b91506159b48261594d565b604082019050919050565b600060208201905081810360008301526159d88161599c565b9050919050565b60006159ea82613c63565b91506159f583613c63565b9250828201905080821115615a0d57615a0c61499b565b5b92915050565b7f4552433732313a20617070726f766520746f2063616c6c657200000000000000600082015250565b6000615a49601983613d95565b9150615a5482615a13565b602082019050919050565b60006020820190508181036000830152615a7881615a3c565b9050919050565b7f4552433732313a207472616e7366657220746f206e6f6e20455243373231526560008201527f63656976657220696d706c656d656e7465720000000000000000000000000000602082015250565b6000615adb603283613d95565b9150615ae682615a7f565b604082019050919050565b60006020820190508181036000830152615b0a81615ace565b9050919050565b600081519050919050565b600082825260208201905092915050565b6000615b3882615b11565b615b428185615b1c565b9350615b52818560208601613bef565b615b5b81613c19565b840191505092915050565b6000608082019050615b7b6000830187613e8c565b615b886020830186613e8c565b615b956040830185613f75565b8181036060830152615ba78184615b2d565b905095945050505050565b600081519050615bc181613b44565b92915050565b600060208284031215615bdd57615bdc613b0e565b5b6000615beb84828501615bb2565b91505092915050565b7f4552433732313a206d696e7420746f20746865207a65726f2061646472657373600082015250565b6000615c2a602083613d95565b9150615c3582615bf4565b602082019050919050565b60006020820190508181036000830152615c5981615c1d565b9050919050565b7f4552433732313a20746f6b656e20616c7265616479206d696e74656400000000600082015250565b6000615c96601c83613d95565b9150615ca182615c60565b602082019050919050565b60006020820190508181036000830152615cc581615c89565b905091905056fe4142434445464748494a4b4c4d4e4f505152535455565758595a6162636465666768696a6b6c6d6e6f707172737475767778797a303132333435363738392b2fa2646970667358221220b2eb3055c65496e4f70fad506237356d81c82d92a31c756c4594a8866eb5e25364736f6c63430008130033",
  "linkReferences": {},
  "deployedLinkReferences": {}
}